:06000000020DAC02006BD2
:03000B0002006B85
:0300130002006B7D
:03001B0002006B75
:0300230002006B6D
:03002B0002006B65
:0300330002006B5D
:03003B0002006B55
:0300430002006B4D
:03004B0002006B45
:0300530002006B3D
:03005B0002006B35
:0300630002006B2D
:01006B003262
:0900800002006B0002006B00029B
:08008900006B0002006B000295
:08009100006B0002006B00028D
:08009900006B0002006B000285
:0800A100006B0002006B00027D
:0800A900006B0002006B000275
:0700B100006B0002006B0070
:0901000002006B0002006B00021A
:08010900006B0002006B000214
:08011100006B0002006B00020C
:08011900006B0002006B000204
:08012100006B0002006B0002FC
:08012900006B0002006B0002F4
:08013100006B0002006B0002EC
:08013900006B0002006B0002E4
:08014100006B0002006B0002DC
:08014900006B0002006B0002D4
:08015100006B0002006B0002CC
:08015900006B0002006B0002C4
:08016100006B0002006B0002BC
:08016900006B0002006B0002B4
:08017100006B0002006B0002AC
:07017900006B0002006B00A7
:030DB200020DBA75
:030DCD00020DB55F
:050DB5001203F180FEB5
:06018000C200E4F508F5E1
:0401860009F50AD29B
:05018A0001750B00757A
:06018F000C001206001234
:0E01950005FD75CB6375CAC0758E0075C80474
:0701A300D2AFD2B0D2B122AD
:0B01AA00AA82850C827583E0EAF00554
:0501B5000C0509E4B592
:0401BA000902050A27
:0101BE00221E
:0401BF0020000122F9
:0E01C3001205FC90E6A2E0FA30E103020257BA
:0A01D100E509450A60687AC07BE783
:0E01DB008B9D7AC07BE77B008A9E90E67C7449
:0C01E90031F07460F0C3743E9509E49599
:0A01F5000A50107A3EE50924C2F515
:0601FF0009E50A34FFF5DA
:030205000A800765
:06020800AA09E4F509F566
:01020E000AE5
:0B020F008A037C007DE08D9A850B9B2C
:0E021A008A041AEC601090E67BE090E67CF01F
:080228007C007DE08D9A80EA64
:0C023000859B0B0090E68F74022BF0D22F
:03023C00CF801858
:0E023F0030CF1590E7C07431F090E7C17460C5
:0A024D00F00090E68F7402F0C2CFBB
:06025700E5AA30E00122DF
:0A025D00C3E50994C1E50A940040CE
:02026700012272
:0E02690090E690E0FB7A0090E691E0FC7D00CC
:0A027700EA4CF50DEB4DF50E7C008E
:0E0281007DF08D9A7C007DF08C9B7C007D00D2
:0A028F00C3EC950DED950E4003023F
:02029900036AF6
:07029B00E5087003020326D1
:0A02A200E50DC39CFEE50E9DFFA8CC
:0C02AC00087900C3E89EE99F5004880612
:0202B8008907B4
:0A02BA008E00E508C398F508EE2C4D
:0B02C400FCEF3DFD30012C8E008F018F
:0902CF008802890318B8FF011927
:0E02D800EA4B60B390E67BE0F582C004C005FF
:0E02E600C000C001120632D001D000D005D0F9
:0302F4000480D8AB
:0402F7008E028F03E1
:0902FB008A068B071ABAFF011BE9
:0E030400EE4F608790E67BE0F582C002C003FA
:0E031200C004C00512066F1201AAD005D00467
:06032000D003D00280D5DD
:0D03260090E67BE0FA23235401FBB40100B4
:0A0333009201EA30E707743F5AF523
:03033D0008802213
:0C03400030010F8A82C004C005120606BE
:06034C00D005D004801072
:0E0352008A82C004C0051206241201AAD0053A
:02036000D004C7
:050362000CBC00010DC0
:0303670002028F00
:08036A000090E6917480F0227E
:0E03720090E6B8E0FA20E70C90E6B9E07002E1
:02038000D200A9
:04038200758201225D
:0E03860090E6B9E0FABA902B90E6BCE025E0D4
:0A039400547FFA2400F582E43418C7
:0C039E00F583E0FB90E740F0EA04240047
:0C03AA00F582E43418F583E0FA90E74196
:0303B600F0800CC8
:0C03B90090E7407436F090E7417483F048
:0D03C50090E68AE4F090E6BEE0FABA02008D
:0903D200500790E6BEE0FA80023B
:0203DB007A02A4
:0903DD0090E68BEAF07582012222
:0603E60030020312090FB2
:0503EC001201BF80F5C5
:0E03F100C2AF90E609E4F01201801206BE12BF
:0603FF000455120CDF1290
:080405000879D2AF120788024A
:02040D0003E604
:0A040F00AA82E50F54FEFBB50F02B0
:02041900802938
:0A041B008A048C05E46210ED621102
:0A042500EB2400F582E43418F5839F
:0A042F00E0FB7C006210EC6211E5B6
:060439001033C51133C5AC
:05043F001192E0F51030
:06044400AB0F050FEB24D5
:0A044A0000F582E43418F583EAF0AF
:010454002285
:07045500750F007510AA7578
:0C045C0011AA75820012040F75820012B4
:04046800040F7A0003
:0C046C00C3EA648094865017EA2408F567
:0C04780082E434E1F583E0F582C002125A
:07048400040FD0020A80E121
:02048B007A00F5
:0C048D00C3EA648094825017EA2423F52F
:0C04990082E434E1F583E0F582C0021239
:0704A500040FD0020A80E100
:0E04AC0075821C12040F75820012040F7A0074
:0C04BA00C3EA648094825017EA2402F523
:0C04C60082E434E1F583E0F582C002120C
:0704D200040FD0020A80E1D3
:0C04D9007486250FFAF582C00212040F91
:0C04E50090E188E0F58212040FD0029034
:0D04F100E188E02AFAF582C00212040F90A3
:0B04FE00E1A6E0F58212040FD002908E
:0A050900E1A6E02AF58212040F902B
:0A051300E1BEE0F58212040F7A0049
:0E051D0090E188E0FBC3EA64808BF063F0801D
:0B052B0095F05017EA2488F582E434B4
:0C053600E1F583E0F582C00212040FD052
:04054200020A80D752
:020546007A0039
:0E05480090E1A6E0FBC3EA64808BF063F080D4
:0B05560095F05017EA24A6F582E4346B
:0C056100E1F583E0F582C00212040FD027
:04056D00020A80D727
:020571007A000E
:0E05730090E1BEE0FBC3EA64808BF063F08091
:0B05810095F05017EA24BEF582E43428
:0C058C00E1F583E0F582C00212040FD0FC
:04059800020A80D7FC
:02059C007A00E3
:0C059E00C3EA648094845017EA240EF530
:0C05AA0082E434E1F583E0F582C0021227
:0705B600040FD0020A80E1EE
:0C05BD007482250F400875820012040FA4
:0205C90080F2BE
:0805CB00AA1090187EEAF0AAC4
:0705D3001190187FEAF022ED
:0805DA007880E84400600C7910
:0C05E20001901800E4F0A3D8FCD9FAD076
:0E05EE0083D082F6D8FDC082C08375820022C1
:02E1000012010A
:06E10200000200000040D5
:06E10800C016EF03040045
:04E10E000102030106
:0AE112000A060002FFFFFF400100B3
:07E11C0009022000010100CF
:0EE1230080FA0904000002FFFFFF02070581D9
:0BE131000200020007050202000200CD
:0EE13C001201000200000040C016EF030400B4
:04E14A0001020301CA
:0AE14E000A060002FFFFFF40010077
:0EE158000902200001010080FA090400000203
:0EE16600FFFFFF0207058102400000070502CF
:04E174000240000065
:01E1780004A2
:02E1790082E141
:02E17B0088E139
:02E17D00A6E119
:02E17F00BEE1FF
:06E1820006030000090481
:0EE188001E037700770077002E0072006500FE
:0EE19600740072006F00310031002E00640032
:02E1A400650014
:0EE1A60018036E0065007800790073003300E6
:0AE1B4005F006A007400610067005C
:0EE1BE0012033000300030003000300030001E
:04E1CC0030003000EF
:0105FC0022DC
:0105FD0022DB
:0105FE0022DA
:0105FF0022D9
:060600009001F4020D9BC5
:0E060600AA82ABB574FE5BF5F0741C45F0F5EE
:0E061400B5EA1392B4EAA2E192B3EAA2E4922C
:02062200B22202
:0E062400120606A2B0E433FA74024AF58222EE
:0E063200E5821392B2D2B413C2B492B2D2B423
:0E06400013C2B492B2D2B413C2B492B2D2B406
:0E064E0013C2B492B2D2B413C2B492B2D2B4F8
:0E065C0013C2B492B2D2B413C2B492B2D2B4EA
:05066A0000C2B42222D1
:0E066F00E582A2B01392B2D2B4C2B4A2B0130C
:0E067D0092B2D2B4C2B4A2B01392B2D2B4C23E
:0E068B00B4A2B01392B2D2B4C2B4A2B0139211
:0E069900B2D2B4C2B4A2B01392B2D2B4C2B400
:0E06A700A2B01392B2D2B4C2B4A2B01392B2F7
:0906B500D2B400C2B4F582222285
:0D06BE0090E6007412F090E60174ABF0902D
:0E06CB00E6707480F00090E60274E0F000909B
:0E06D900E60374F9F00090E6047480F00090DF
:0D06E700E60B7403F00090E610E4F00090C4
:0D06F400E61174A0F00090E618E4F000900C
:0E070100E6047402F00090E61274A2F000907C
:0E070F00E6137402F00090E6147402F00090FD
:0E071D00E6157402F00090E6047404F00090FB
:0E072B00E6047406F00090E6047408F00090F6
:0E073900E604E4F00090E619E4F00090E61A01
:0E074700E4F00090E61BE4F00090E60BE4F016
:0E075500000090E6917480F00090E6917480B0
:03076300F0002281
:0807660090E6A0E04401F0223E
:0E076E00AA8274805AC423541FFB740F5A9041
:0C077C00E6834BF090E683E04420F0227E
:0E07880090E680E0440AF09000FA120D9B907B
:0E079600E65D74FFF090E65F74FFF05391EFA4
:0807A40090E680E054F7F0221A
:060DC700E478FFF6D8FD00
:060DAC0075120075130032
:0A07AC0090E680E0FA30E7197514BA
:0307B600007515B6
:0307B900E17516D1
:0307BC001275179C
:0307BF00E17518C9
:0307C2001C75198A
:0307C500E1751AC1
:0307C80058751B46
:0207CB00E12229
:0407CD0075143C75EE
:0307D10015E175BA
:0307D400164E7549
:0307D70017E175B2
:0307DA0018587537
:0307DD0019E175AA
:0307E0001A1C756B
:0307E3001BE122F5
:0907E6005391EF75A100D202321B
:0C07EF00C021C0E0C0F0C082C083C00286
:0E07FB00C003C004C005C006C007C000C00196
:0E080900C0D075D0005391EF75A1001207AC5E
:0E081700D0D0D001D000D007D006D005D0043C
:0D082500D003D002D083D082D0F0D0E0D03C
:02083200213271
:0C083400C021C0E0C0F0C082C083C00240
:0E084000C003C004C005C006C007C000C00150
:0E084E00C0D075D0005391EF75A1001207AC19
:0E085C00D0D0D001D000D007D006D005D004F7
:0D086A00D003D002D083D082D0F0D0E0D0F7
:0208770021322C
:050879001207AC751C24
:03087E00E6751DFF
:0808810007758200120C3875A6
:030889001CEF75EC
:06088C001D077582101229
:040892000C38751C8D
:0308960034751D99
:0C08990008758214120C3890E65C743173
:0208A500F0223F
:0D08A700E582547FFA24F750047582002288
:0708B400BA01047582012264
:0808BB00530201E4BA0001043C
:0308C300F5822299
:0E08C600AA82BA010C90E6A1E0FB7C008B82B6
:0308D4008C8322F0
:0E08D700BA810C90E6A2E0FB7C008B828C8341
:0108E50022F0
:0E08E60053027FEA700C90E6A0E0FB7C008BD2
:0408F400828C83224D
:0E08F80090E6A3E0FB7C00EAC313FA7D00EA61
:090906002BFBED3C8B82F58322F2
:0C090F00C20290E6B8E0FA530260BA00A1
:03091B000280282F
:05091E00BA2002800D6B
:05092300BA4002800E45
:05092800BA600280032B
:03092D00020BCDED
:06093000120766020BCD68
:0A093600120372E5826003020BCD8C
:06094000120766020BCD58
:0D09460090E6B8E0FA530280BA8002800308
:03095300020ACEC7
:0B09560090E6B9E0FABA0003020A477D
:05096100BA060280351A
:05096600BA0802800840
:05096B00BA0A0280172A
:03097000020AC8B0
:0C09730090E740E512F090E68AE4F09076
:08097F00E68B7401F0020BCDC0
:0C09870090E740E513F090E68AE4F09061
:08099300E68B7401F0020BCDAC
:0A099B0090E6BBE0FABA01028017F3
:0509A500BA02028038D7
:0509AA00BA03028059B0
:0509AF00BA0602801BE6
:0509B400BA0702803CBF
:0309B900020A41EE
:0A09BC00AA14AB1590E6B3EBF07B34
:0909C6000090E6B4EAF0020BCD4A
:0A09CF00AA16AB1790E6B3EBF07B1D
:0909D9000090E6B4EAF0020BCD37
:0A09E200AA18AB1990E6B3EBF07B06
:0909EC000090E6B4EAF0020BCD24
:0A09F500AA1AAB1B90E6B3EBF07BEF
:0909FF000090E6B4EAF0020BCD11
:0E0A080090E6BAE0FA90E178E0FBC3EA9B408A
:070A160006120766020BCD7A
:0C0A1D0090E6BAE075F002A42479F5829E
:0B0A290074E135F0F583E0FAA3E090E3
:0D0A3400E6B3F07B0090E6B4EAF0020BCDD3
:060A4100120766020BCD56
:0D0A470090E6B8E0FA53021FBA0002800AE0
:050A5400BA0102801B45
:050A5900BA0266802CCA
:0E0A5E0090E740E4F090E741F090E68AF090D7
:080A6C00E68B7402F0020BCDD1
:0E0A740090E740E4F090E741F090E68AF090C1
:080A8200E68B7402F0020BCDBB
:0E0A8A0090E6BCE0F5821208A7E58260259098
:0E0A9800E6BCE0F5821208C6E0FA53020190B7
:0E0AA600E740EAF090E741E4F090E68AF09035
:080AB400E68B7402F0020BCD89
:060ABC00120766020BCDDB
:060AC200120766020BCDD5
:060AC800120766020BCDCF
:0C0ACE0090E6B9E0FA24F45003020BCAD1
:070ADA00EA2A2A900AE173E9
:070AE100020BCA020B170211
:060AE8000B92020B7302E9
:060AEE000BCA020BCA0254
:060AF4000BCA020BCA024E
:060AFA000BCA020B05020D
:050B00000BCA020B0E00
:090B050090E6BAE0F512020BCDF6
:090B0E0090E6BAE0F513020BCDEC
:0D0B170090E6B8E0FA53021FBA0002800514
:050B2400BA0247800A3F
:0A0B290090E6BAE0120766020BCD59
:0D0B330090E6BAE0703090E6BCE0F582126A
:0D0B400008A7E582602390E6BCE0F5821274
:0E0B4D0008C6AA82AB83E0FC5304FE8A828BAA
:0E0B5B0083ECF090E6BCE0F58212076E806439
:050B6900120766805F29
:050B6E00120766805A29
:0E0B730090E6B8E0FA53021FBA004F90E6BABF
:070B8100E0FABA0102800551
:050B8800BA02028040EA
:050B8D00120766803B29
:0E0B920090E6BAE0FA702C90E6BCE0F5821214
:0D0BA00008A7E582601A90E6BCE0F582121D
:0E0BAD0008C6AA82AB83E0FC4304018A828B57
:050BBB0083ECF0800D49
:050BC000120766800829
:050BC500120766800329
:030BCA00120766A9
:080BCD0090E6A0E04480F02254
:050BD500AA82BA030032
:070BDA004005EA249C5001D4
:010BE10022F1
:090BE200740F5AFBBB03028007EB
:070BEB00740F5AFBBB0B4520
:0A0BF200A2AF9203C2AFEA2400F59F
:0C0BFC0082E43400F5837402F07B007486
:0C0C0800012AFCE43BFDEC2400F582ED29
:0A0C14003400F583E51DFCF07402C6
:0C0C1E002AFAE43BFBEA2400F582EB34E8
:0A0C2A0000F583AA1C7B00EAF0A28B
:030C34000392AF79
:010C3700229A
:080C3800E582FA248350012239
:060C4000EA5403600122EA
:0A0C4600A2AF9204C2AFEA2400F549
:0C0C500082E43401F5837402F07B007430
:0C0C5C00012AFCE43BFDEC2400F582EDD5
:0A0C68003401F583E51DF074022A43
:0B0C7200FAE43BFBEA2400F582EB34BF
:080C7D0001F583AA1CEAF0A2B4
:040C85000492AF2204
:050C8900AA82BA800000
:070C8E004005EA244B500170
:010C9500223C
:060C9600EA540360012294
:0A0C9C00A2AF9205C2AFEA2480F572
:0C0CA60082E43400F5837402F07B0074DB
:0C0CB200012AFCE43BFDEC2480F582EDFF
:0A0CBE003400F583E51DF074022AEE
:0B0CC800FAE43BFBEA2480F582EB34E9
:080CD30000F583AA1CEAF0A25F
:040CDB000592AF22AD
:080CDF00C2E8C2EA751C0075B1
:060CE7001D01758243129D
:040CED000BD5751C92
:030CF10080751DEE
:0C0CF40000758253120BD50090E650E40E
:0E0D0000F00090E652E4F00090E654E4F000BB
:0E0D0E0090E656E4F00090E65174FFF000907D
:0E0D1C00E65374FFF00090E65574FFF000906F
:0E0D2A00E65774FFF00090E658E4F090E659AA
:0E0D380074FFF090E65AE4F090E65B74FFF072
:0E0D460090E65CE4F090E65D74FFF090E65EEF
:0E0D5400E4F090E65F74FFF00090E660E4F0DB
:0D0D62000090E66174FFF090E662E4F0900E
:0E0D6F00E66374FFF090E665E4F090E66874C9
:0A0D7D000BF05391AFD2E8D2EA2246
:010D87002249
:020D8800AA823D
:060D8A00120D87DAFB22C6
:030D900090FB5085
:080D9300A3E582458370F922FB
:040D9B00AA82AB83FA
:080D9F00120D901ABAFF011BAE
:050DA700EA4B70F4228C
:030DBA007581211F
:0A0DBD001205DAE5826003020DB5AD
:00000001FF
