:06000000020E0C02006B71
:03000B0002006B85
:0300130002006B7D
:03001B0002006B75
:0300230002006B6D
:03002B0002006B65
:0300330002006B5D
:03003B0002006B55
:0300430002006B4D
:03004B0002006B45
:0300530002006B3D
:03005B0002006B35
:0300630002006B2D
:01006B003262
:0900800002006B0002006B00029B
:08008900006B0002006B000295
:08009100006B0002006B00028D
:08009900006B0002006B000285
:0800A100006B0002006B00027D
:0800A900006B0002006B000275
:0700B100006B0002006B0070
:0901000002006B0002006B00021A
:08010900006B0002006B000214
:08011100006B0002006B00020C
:08011900006B0002006B000204
:08012100006B0002006B0002FC
:08012900006B0002006B0002F4
:08013100006B0002006B0002EC
:08013900006B0002006B0002E4
:08014100006B0002006B0002DC
:08014900006B0002006B0002D4
:08015100006B0002006B0002CC
:08015900006B0002006B0002C4
:08016100006B0002006B0002BC
:08016900006B0002006B0002B4
:08017100006B0002006B0002AC
:07017900006B0002006B00A7
:030E1200020E1AB3
:030E2D00020E159D
:050E15001203F180FE54
:06018000C200E4F508F5E1
:0401860009F50AD29B
:05018A0001750B00757A
:06018F000C001206001234
:0E01950005FD75CB6375CAC0758E0075C80474
:0701A300D2AFD2B0D2B122AD
:0B01AA00AA82850C827583E0EAF00554
:0501B5000C0509E4B592
:0401BA000902050A27
:0101BE00221E
:0401BF0020000122F9
:0E01C3001205FC90E6A2E0FA30E103020257BA
:0A01D100E509450A60687AC07BE783
:0E01DB008B9D7AC07BE77B008A9E90E67C7449
:0C01E90031F07460F0C3743E9509E49599
:0A01F5000A50107A3EE50924C2F515
:0601FF0009E50A34FFF5DA
:030205000A800765
:06020800AA09E4F509F566
:01020E000AE5
:0B020F008A037C007DE08D9A850B9B2C
:0E021A008A041AEC601090E67BE090E67CF01F
:080228007C007DE08D9A80EA64
:0C023000859B0B0090E68F74022BF0D22F
:03023C00CF801858
:0E023F0030CF1590E7C07431F090E7C17460C5
:0A024D00F00090E68F7402F0C2CFBB
:06025700E5AA30E00122DF
:0A025D00C3E50994C1E50A940040CE
:02026700012272
:0E02690090E690E0FB7A0090E691E0FC7D00CC
:0A027700EA4CF50DEB4DF50E7C008E
:0E0281007DF08D9A7C007DF08C9B7C007D00D2
:0A028F00C3EC950DED950E4003023F
:02029900036AF6
:07029B00E5087003020326D1
:0A02A200E50DC39CFEE50E9DFFA8CC
:0C02AC00087900C3E89EE99F5004880612
:0202B8008907B4
:0A02BA008E00E508C398F508EE2C4D
:0B02C400FCEF3DFD30012C8E008F018F
:0902CF008802890318B8FF011927
:0E02D800EA4B60B390E67BE0F582C004C005FF
:0E02E600C000C001120637D001D000D005D0F4
:0302F4000480D8AB
:0402F7008E028F03E1
:0902FB008A068B071ABAFF011BE9
:0E030400EE4F608790E67BE0F582C002C003FA
:0E031200C004C0051206741201AAD005D00462
:06032000D003D00280D5DD
:0D03260090E67BE0FA23235401FBB40100B4
:0A0333009201EA30E707743F5AF523
:03033D0008802213
:0C03400030010F8A82C004C00512060BB9
:06034C00D005D004801072
:0E0352008A82C004C0051206291201AAD00535
:02036000D004C7
:050362000CBC00010DC0
:0303670002028F00
:08036A000090E6917480F0227E
:0E03720090E6B8E0FA20E70C90E6B9E07002E1
:02038000D200A9
:04038200758201225D
:0E03860090E6B9E0FABA902B90E6BCE025E0D4
:0A039400547FFA2400F582E43418C7
:0C039E00F583E0FB90E740F0EA04240047
:0C03AA00F582E43418F583E0FA90E74196
:0303B600F0800CC8
:0C03B90090E7407436F090E7417483F048
:0D03C50090E68AE4F090E6BEE0FABA02008D
:0903D200500790E6BEE0FA80023B
:0203DB007A02A4
:0903DD0090E68BEAF07582012222
:0603E60030020312096F52
:0503EC001201BF80F5C5
:0E03F100C2AF90E609E4F01201801206C312BA
:0603FF000455120D3F122F
:0804050008D9D2AF1207E8028A
:02040D0003E604
:0A040F00AA82E50F54FEFBB50F02B0
:02041900802938
:0A041B008A048C05E46210ED621102
:0A042500EB2400F582E43418F5839F
:0A042F00E0FB7C006210EC6211E5B6
:060439001033C51133C5AC
:05043F001192E0F51030
:06044400AB0F050FEB24D5
:0A044A0000F582E43418F583EAF0AF
:010454002285
:07045500750F007510AA7578
:0C045C0011AA75820012040F75820012B4
:04046800040F7A0003
:0C046C00C3EA648094865017EA2408F567
:0C04780082E434E1F583E0F582C002125A
:07048400040FD0020A80E121
:02048B007A00F5
:0C048D00C3EA648094825017EA2423F52F
:0C04990082E434E1F583E0F582C0021239
:0704A500040FD0020A80E100
:0E04AC0075821C12040F75820012040F7A0074
:0C04BA00C3EA648094825017EA2402F523
:0C04C60082E434E1F583E0F582C002120C
:0704D200040FD0020A80E1D3
:0C04D9007486250FFAF582C00212040F91
:0C04E50090E19EE0F58212040FD002901E
:0D04F100E19EE02AFAF582C00212040F908D
:0B04FE00E1BCE0F58212040FD0029078
:0A050900E1BCE02AF58212040F9015
:0A051300E1E6E0F58212040F7A0021
:0E051D0090E19EE0FBC3EA64808BF063F08007
:0B052B0095F05017EA249EF582E4349E
:0C053600E1F583E0F582C00212040FD052
:04054200020A80D752
:020546007A0039
:0E05480090E1BCE0FBC3EA64808BF063F080BE
:0B05560095F05017EA24BCF582E43455
:0C056100E1F583E0F582C00212040FD027
:04056D00020A80D727
:020571007A000E
:0E05730090E1E6E0FBC3EA64808BF063F08069
:0B05810095F05017EA24E6F582E43400
:0C058C00E1F583E0F582C00212040FD0FC
:04059800020A80D7FC
:02059C007A00E3
:0C059E00C3EA648094845017EA240EF530
:0C05AA0082E434E1F583E0F582C0021227
:0705B600040FD0020A80E1EE
:0C05BD007482250F400875820012040FA4
:0205C90080F2BE
:0805CB00AA1090187EEAF0AAC4
:0705D3001190187FEAF022ED
:0805DA007880E84400600C7910
:0C05E20001901800E4F0A3D8FCD9FAD076
:0E05EE0083D082F6D8FDC082C08375820022C1
:02E1000012010A
:06E10200000200000040D5
:06E10800C016EF03040045
:04E10E000102030106
:0AE112000A060002FFFFFF400100B3
:07E11C0009023500010100BA
:0EE1230080FA0904000005FFFFFF02070581D6
:0EE131000200020007050202000200070504BA
:0EE13F000200020007058602000200070588A4
:04E14D0002000200CA
:0EE152001201000200000040C016EF0304009E
:04E1600001020301B4
:0AE164000A060002FFFFFF40010061
:0EE16E000902200001010080FA0904000002ED
:0EE17C00FFFFFF0207058102400000070502B9
:04E18A00024000004F
:01E18E00048C
:02E18F0098E115
:02E191009EE10D
:02E19300BCE1ED
:02E19500E6E1C1
:06E198000603000009046B
:0EE19E001E037700770077002E0072006500E8
:0EE1AC00740072006F00310031002E0064001C
:02E1BA006500FE
:0EE1BC002A036E0065007800790073003200BF
:0EE1CA005F006A007400610067005F003300B0
:0EE1D8006600690066006F005F00690063006A
:0EE1E6001203300030003000300030003000F6
:04E1F40030003000C7
:0105FC0022DC
:0105FD0022DB
:0105FE0022DA
:0105FF0022D9
:0B060000D2B775B5809001F4020DFB2D
:0E060B00AA82ABB574FE5BF5F0741C45F0F5E9
:0E061900B5EA1392B4EAA2E192B3EAA2E49227
:02062700B222FD
:0E06290012060BA2B0E433FA74024AF58222E4
:0E063700E5821392B2D2B413C2B492B2D2B41E
:0E06450013C2B492B2D2B413C2B492B2D2B401
:0E06530013C2B492B2D2B413C2B492B2D2B4F3
:0E06610013C2B492B2D2B413C2B492B2D2B4E5
:05066F0000C2B42222CC
:0E067400E582A2B01392B2D2B4C2B4A2B01307
:0E06820092B2D2B4C2B4A2B01392B2D2B4C239
:0E069000B4A2B01392B2D2B4C2B4A2B013920C
:0E069E00B2D2B4C2B4A2B01392B2D2B4C2B4FB
:0E06AC00A2B01392B2D2B4C2B4A2B01392B2F2
:0906BA00D2B400C2B4F582222280
:0D06C30090E6007412F090E60174A3F09030
:0E06D000E6707480F00090E60274E0F0009096
:0E06DE00E60374F9F00090E6047480F00090DA
:0D06EC00E60B7403F00090E610E4F00090BF
:0D06F900E61174A0F00090E618E4F0009007
:0E070600E6047402F00090E61274A2F0009077
:0E071400E61374A2F00090E61474E2F0009078
:0E072200E61574E2F00090E6047404F0009016
:0E073000E6047406F00090E6047408F00090F1
:0E073E00E604E4F00090E60BE4F00090E649DB
:0E074C007484F00090E6497484F00090E61981
:0E075A00E4F00090E6197410F00090E632749E
:0E07680080F00090E6337404F00090E61A74FE
:0E0776000CF00090E6247402F00090E625E4FA
:0E078400F00090E6347409F00090E63574FC45
:0E079200F00090E61B740CF00090E626740256
:0E07A000F00090E627E4F00090E6367441F099
:0E07AE000090E63774FCF0000090E691748035
:0A07BC00F00090E6917480F0002236
:0807C60090E6A0E04401F022DE
:0E07CE00AA8274805AC423541FFB740F5A90E1
:0C07DC00E6834BF090E683E04420F0221E
:0E07E80090E680E0440AF09000FA120DFB90BB
:0E07F600E65D74FFF090E65F74FFF05391EF44
:0808040090E680E054F7F022B9
:060E2700E478FFF6D8FD9F
:060E0C00751200751300D1
:0A080C0090E680E0FA30E719751459
:0308160000751555
:03081900E1751670
:03081C001275173B
:03081F00E1751868
:030822001C751929
:03082500E1751A60
:030828006E751BCF
:02082B00E122C8
:04082D007514527577
:0308310015E17559
:03083400166475D2
:0308370017E17551
:03083A00186E75C0
:03083D0019E17549
:030840001A1C750A
:030843001BE12294
:090846005391EF75A100D20232BA
:0C084F00C021C0E0C0F0C082C083C00225
:0E085B00C003C004C005C006C007C000C00135
:0E086900C0D075D0005391EF75A10012080C9D
:0E087700D0D0D001D000D007D006D005D004DC
:0D088500D003D002D083D082D0F0D0E0D0DC
:02089200213211
:0C089400C021C0E0C0F0C082C083C002E0
:0E08A000C003C004C005C006C007C000C001F0
:0E08AE00C0D075D0005391EF75A10012080C58
:0E08BC00D0D0D001D000D007D006D005D00497
:0D08CA00D003D002D083D082D0F0D0E0D097
:0208D7002132CC
:0508D90012080C751C63
:0308DE0046751D3F
:0808E10008758200120C9875E5
:0308E9001C4F752C
:0608EC001D0875821012C8
:0408F2000C98751CCD
:0308F60094751DD9
:0C08F90008758214120C9890E65C7431B3
:02090500F022DE
:0D090700E582547FFA24F750047582002227
:07091400BA01047582012203
:08091B00530201E4BA000104DB
:03092300F5822238
:0E092600AA82BA010C90E6A1E0FB7C008B8255
:030934008C83228F
:0E093700BA810C90E6A2E0FB7C008B828C83E0
:01094500228F
:0E09460053027FEA700C90E6A0E0FB7C008B71
:04095400828C8322EC
:0E09580090E6A3E0FB7C00EAC313FA7D00EA00
:090966002BFBED3C8B82F5832292
:0C096F00C20290E6B8E0FA530260BA0041
:03097B00028028CF
:05097E00BA2002800D0B
:05098300BA4002800EE5
:05098800BA60028003CB
:03098D00020C2D2C
:060990001207C6020C2D47
:0A099600120372E5826003020C2DCB
:0609A0001207C6020C2D37
:0D09A60090E6B8E0FA530280BA80028003A8
:0309B300020B2E06
:0B09B60090E6B9E0FABA0003020AA7BD
:0509C100BA06028035BA
:0509C600BA08028008E0
:0509CB00BA0A028017CA
:0309D000020B28EF
:0C09D30090E740E512F090E68AE4F09016
:0809DF00E68B7401F0020C2DFF
:0C09E70090E740E513F090E68AE4F09001
:0809F300E68B7401F0020C2DEB
:0A09FB0090E6BBE0FABA0102801793
:050A0500BA0202803876
:050A0A00BA030280594F
:050A0F00BA0602801B85
:050A1400BA0702803C5E
:030A1900020AA12D
:0A0A1C00AA14AB1590E6B3EBF07BD3
:090A26000090E6B4EAF0020C2D88
:0A0A2F00AA16AB1790E6B3EBF07BBC
:090A39000090E6B4EAF0020C2D75
:0A0A4200AA18AB1990E6B3EBF07BA5
:090A4C000090E6B4EAF0020C2D62
:0A0A5500AA1AAB1B90E6B3EBF07B8E
:090A5F000090E6B4EAF0020C2D4F
:0E0A680090E6BAE0FA90E18EE0FBC3EA9B4014
:070A7600061207C6020C2D59
:0C0A7D0090E6BAE075F002A4248FF58228
:0B0A890074E135F0F583E0FAA3E09083
:0D0A9400E6B3F07B0090E6B4EAF0020C2D12
:060AA1001207C6020C2D35
:0D0AA70090E6B8E0FA53021FBA0002800A80
:050AB400BA0102801BE5
:050AB900BA0266802C6A
:0E0ABE0090E740E4F090E741F090E68AF09077
:080ACC00E68B7402F0020C2D10
:0E0AD40090E740E4F090E741F090E68AF09061
:080AE200E68B7402F0020C2DFA
:0E0AEA0090E6BCE0F582120907E582602590D7
:0E0AF800E6BCE0F582120926E0FA53020190F6
:0E0B0600E740EAF090E741E4F090E68AF090D4
:080B1400E68B7402F0020C2DC7
:060B1C001207C6020C2DB9
:060B22001207C6020C2DB3
:060B28001207C6020C2DAD
:0C0B2E0090E6B9E0FA24F45003020C2A0F
:070B3A00EA2A2A900B417327
:070B4100020C2A020B7702EF
:060B48000BF2020BD302C8
:060B4E000C2A020C2A0231
:060B54000C2A020C2A022B
:060B5A000C2A020B6502EB
:050B60000C2A020B6EDF
:090B650090E6BAE0F512020C2D35
:090B6E0090E6BAE0F513020C2D2B
:0D0B770090E6B8E0FA53021FBA00028005B4
:050B8400BA0247800ADF
:0A0B890090E6BAE01207C6020C2D38
:0D0B930090E6BAE0703090E6BCE0F582120A
:0D0BA0000907E582602390E6BCE0F58212B3
:0E0BAD000926AA82AB83E0FC5304FE8A828BE9
:0E0BBB0083ECF090E6BCE0F5821207CE806479
:050BC9001207C6805F69
:050BCE001207C6805A69
:0E0BD30090E6B8E0FA53021FBA004F90E6BA5F
:070BE100E0FABA01028005F1
:050BE800BA020280408A
:050BED001207C6803B69
:0E0BF20090E6BAE0FA702C90E6BCE0F58212B4
:0D0C00000907E582601A90E6BCE0F582125B
:0E0C0D000926AA82AB83E0FC4304018A828B95
:050C1B0083ECF0800DE8
:050C20001207C6800868
:050C25001207C6800368
:030C2A001207C6E8
:080C2D0090E6A0E04480F022F3
:050C3500AA82BA0300D1
:070C3A004005EA249C500173
:010C41002290
:090C4200740F5AFBBB030280078A
:070C4B00740F5AFBBB0B45BF
:0A0C5200A2AF9203C2AFEA2400F53E
:0C0C5C0082E43400F5837402F07B007425
:0C0C6800012AFCE43BFDEC2400F582EDC9
:0A0C74003400F583E51DFCF0740266
:0C0C7E002AFAE43BFBEA2400F582EB3488
:0A0C8A0000F583AA1C7B00EAF0A22B
:030C94000392AF19
:010C9700223A
:080C9800E582FA2483500122D9
:060CA000EA54036001228A
:0A0CA600A2AF9204C2AFEA2400F5E9
:0C0CB00082E43401F5837402F07B0074D0
:0C0CBC00012AFCE43BFDEC2400F582ED75
:0A0CC8003401F583E51DF074022AE3
:0B0CD200FAE43BFBEA2400F582EB345F
:080CDD0001F583AA1CEAF0A254
:040CE5000492AF22A4
:050CE900AA82BA8000A0
:070CEE004005EA244B500110
:010CF50022DC
:060CF600EA540360012234
:0A0CFC00A2AF9205C2AFEA2480F512
:0C0D060082E43400F5837402F07B00747A
:0C0D1200012AFCE43BFDEC2480F582ED9E
:0A0D1E003400F583E51DF074022A8D
:0B0D2800FAE43BFBEA2480F582EB3488
:080D330000F583AA1CEAF0A2FE
:040D3B000592AF224C
:080D3F00C2E8C2EA751C007550
:060D47001D01758243123C
:040D4D000C35751CD0
:030D510080751D8D
:0C0D540000758253120C350090E650E44C
:0E0D6000F00090E652E4F00090E654E4F0005B
:0E0D6E0090E656E4F00090E65174FFF000901D
:0E0D7C00E65374FFF00090E65574FFF000900F
:0E0D8A00E65774FFF00090E658E4F090E6594A
:0E0D980074FFF090E65AE4F090E65B74FFF012
:0E0DA60090E65CE4F090E65D74FFF090E65E8F
:0E0DB400E4F090E65F74FFF00090E660E4F07B
:0D0DC2000090E66174FFF090E662E4F090AE
:0E0DCF00E66374FFF090E665E4F090E6687469
:0A0DDD000BF05391AFD2E8D2EA22E6
:010DE70022E9
:020DE800AA82DD
:060DEA00120DE7DAFB2206
:030DF00090FB5025
:080DF300A3E582458370F9229B
:040DFB00AA82AB839A
:080DFF00120DF01ABAFF011BEE
:050E0700EA4B70F4222B
:030E1A00758121BE
:0A0E1D001205DAE5826003020E15EB
:00000001FF
