:06000000020E0702006B76
:03000B0002006B85
:0300130002006B7D
:03001B0002006B75
:0300230002006B6D
:03002B0002006B65
:0300330002006B5D
:03003B0002006B55
:0300430002006B4D
:03004B0002006B45
:0300530002006B3D
:03005B0002006B35
:0300630002006B2D
:01006B003262
:0900800002006B0002006B00029B
:08008900006B0002006B000295
:08009100006B0002006B00028D
:08009900006B0002006B000285
:0800A100006B0002006B00027D
:0800A900006B0002006B000275
:0700B100006B0002006B0070
:0901000002006B0002006B00021A
:08010900006B0002006B000214
:08011100006B0002006B00020C
:08011900006B0002006B000204
:08012100006B0002006B0002FC
:08012900006B0002006B0002F4
:08013100006B0002006B0002EC
:08013900006B0002006B0002E4
:08014100006B0002006B0002DC
:08014900006B0002006B0002D4
:08015100006B0002006B0002CC
:08015900006B0002006B0002C4
:08016100006B0002006B0002BC
:08016900006B0002006B0002B4
:08017100006B0002006B0002AC
:07017900006B0002006B00A7
:030E0D00020E15BD
:030E2800020E10A7
:050E10001203F180FE59
:06018000C200E4F508F5E1
:0401860009F50AD29B
:05018A0001750B00757A
:06018F000C001206001234
:0E01950005FD75CB6375CAC0758E0075C80474
:0701A300D2AFD2B0D2B122AD
:0B01AA00AA82850C827583E0EAF00554
:0501B5000C0509E4B592
:0401BA000902050A27
:0101BE00221E
:0401BF0020000122F9
:0E01C3001205FC90E6A2E0FA30E103020257BA
:0A01D100E509450A60687AC07BE783
:0E01DB008B9D7AC07BE77B008A9E90E67C7449
:0C01E90031F07460F0C3743E9509E49599
:0A01F5000A50107A3EE50924C2F515
:0601FF0009E50A34FFF5DA
:030205000A800765
:06020800AA09E4F509F566
:01020E000AE5
:0B020F008A037C007DE08D9A850B9B2C
:0E021A008A041AEC601090E67BE090E67CF01F
:080228007C007DE08D9A80EA64
:0C023000859B0B0090E68F74022BF0D22F
:03023C00CF801858
:0E023F0030CF1590E7C07431F090E7C17460C5
:0A024D00F00090E68F7402F0C2CFBB
:06025700E5AA30E00122DF
:0A025D00C3E50994C1E50A940040CE
:02026700012272
:0E02690090E690E0FB7A0090E691E0FC7D00CC
:0A027700EA4CF50DEB4DF50E7C008E
:0E0281007DF08D9A7C007DF08C9B7C007D00D2
:0A028F00C3EC950DED950E4003023F
:02029900036AF6
:07029B00E5087003020326D1
:0A02A200E50DC39CFEE50E9DFFA8CC
:0C02AC00087900C3E89EE99F5004880612
:0202B8008907B4
:0A02BA008E00E508C398F508EE2C4D
:0B02C400FCEF3DFD30012C8E008F018F
:0902CF008802890318B8FF011927
:0E02D800EA4B60B390E67BE0F582C004C005FF
:0E02E600C000C001120632D001D000D005D0F9
:0302F4000480D8AB
:0402F7008E028F03E1
:0902FB008A068B071ABAFF011BE9
:0E030400EE4F608790E67BE0F582C002C003FA
:0E031200C004C00512066F1201AAD005D00467
:06032000D003D00280D5DD
:0D03260090E67BE0FA23235401FBB40100B4
:0A0333009201EA30E707743F5AF523
:03033D0008802213
:0C03400030010F8A82C004C005120606BE
:06034C00D005D004801072
:0E0352008A82C004C0051206241201AAD0053A
:02036000D004C7
:050362000CBC00010DC0
:0303670002028F00
:08036A000090E6917480F0227E
:0E03720090E6B8E0FA20E70C90E6B9E07002E1
:02038000D200A9
:04038200758201225D
:0E03860090E6B9E0FABA902B90E6BCE025E0D4
:0A039400547FFA2400F582E43418C7
:0C039E00F583E0FB90E740F0EA04240047
:0C03AA00F582E43418F583E0FA90E74196
:0303B600F0800CC8
:0C03B90090E7407436F090E7417483F048
:0D03C50090E68AE4F090E6BEE0FABA02008D
:0903D200500790E6BEE0FA80023B
:0203DB007A02A4
:0903DD0090E68BEAF07582012222
:0603E60030020312096A57
:0503EC001201BF80F5C5
:0E03F100C2AF90E609E4F01201801206BE12BF
:0603FF000455120D3A1234
:0804050008D4D2AF1207E30294
:02040D0003E604
:0A040F00AA82E50F54FEFBB50F02B0
:02041900802938
:0A041B008A048C05E46210ED621102
:0A042500EB2400F582E43418F5839F
:0A042F00E0FB7C006210EC6211E5B6
:060439001033C51133C5AC
:05043F001192E0F51030
:06044400AB0F050FEB24D5
:0A044A0000F582E43418F583EAF0AF
:010454002285
:07045500750F007510AA7578
:0C045C0011AA75820012040F75820012B4
:04046800040F7A0003
:0C046C00C3EA648094865017EA2408F567
:0C04780082E434E1F583E0F582C002125A
:07048400040FD0020A80E121
:02048B007A00F5
:0C048D00C3EA648094825017EA2423F52F
:0C04990082E434E1F583E0F582C0021239
:0704A500040FD0020A80E100
:0E04AC0075821C12040F75820012040F7A0074
:0C04BA00C3EA648094825017EA2402F523
:0C04C60082E434E1F583E0F582C002120C
:0704D200040FD0020A80E1D3
:0C04D9007486250FFAF582C00212040F91
:0C04E50090E19EE0F58212040FD002901E
:0D04F100E19EE02AFAF582C00212040F908D
:0B04FE00E1BCE0F58212040FD0029078
:0A050900E1BCE02AF58212040F9015
:0A051300E1E6E0F58212040F7A0021
:0E051D0090E19EE0FBC3EA64808BF063F08007
:0B052B0095F05017EA249EF582E4349E
:0C053600E1F583E0F582C00212040FD052
:04054200020A80D752
:020546007A0039
:0E05480090E1BCE0FBC3EA64808BF063F080BE
:0B05560095F05017EA24BCF582E43455
:0C056100E1F583E0F582C00212040FD027
:04056D00020A80D727
:020571007A000E
:0E05730090E1E6E0FBC3EA64808BF063F08069
:0B05810095F05017EA24E6F582E43400
:0C058C00E1F583E0F582C00212040FD0FC
:04059800020A80D7FC
:02059C007A00E3
:0C059E00C3EA648094845017EA240EF530
:0C05AA0082E434E1F583E0F582C0021227
:0705B600040FD0020A80E1EE
:0C05BD007482250F400875820012040FA4
:0205C90080F2BE
:0805CB00AA1090187EEAF0AAC4
:0705D3001190187FEAF022ED
:0805DA007880E84400600C7910
:0C05E20001901800E4F0A3D8FCD9FAD076
:0E05EE0083D082F6D8FDC082C08375820022C1
:02E1000012010A
:06E10200000200000040D5
:06E10800C016EF03040045
:04E10E000102030106
:0AE112000A060002FFFFFF400100B3
:07E11C0009023500010100BA
:0EE1230080FA0904000005FFFFFF02070581D6
:0EE131000200020007050202000200070504BA
:0EE13F000200020007058602000200070588A4
:04E14D0002000200CA
:0EE152001201000200000040C016EF0304009E
:04E1600001020301B4
:0AE164000A060002FFFFFF40010061
:0EE16E000902200001010080FA0904000002ED
:0EE17C00FFFFFF0207058102400000070502B9
:04E18A00024000004F
:01E18E00048C
:02E18F0098E115
:02E191009EE10D
:02E19300BCE1ED
:02E19500E6E1C1
:06E198000603000009046B
:0EE19E001E037700770077002E0072006500E8
:0EE1AC00740072006F00310031002E0064001C
:02E1BA006500FE
:0EE1BC002A036E0065007800790073003300BE
:0EE1CA005F006A007400610067005F003300B0
:0EE1D8006600690066006F005F00690063006A
:0EE1E6001203300030003000300030003000F6
:04E1F40030003000C7
:0105FC0022DC
:0105FD0022DB
:0105FE0022DA
:0105FF0022D9
:060600009001F4020DF66A
:0E060600AA82ABB574FE5BF5F0741C45F0F5EE
:0E061400B5EA1392B4EAA2E192B3EAA2E4922C
:02062200B22202
:0E062400120606A2B0E433FA74024AF58222EE
:0E063200E5821392B2D2B413C2B492B2D2B423
:0E06400013C2B492B2D2B413C2B492B2D2B406
:0E064E0013C2B492B2D2B413C2B492B2D2B4F8
:0E065C0013C2B492B2D2B413C2B492B2D2B4EA
:05066A0000C2B42222D1
:0E066F00E582A2B01392B2D2B4C2B4A2B0130C
:0E067D0092B2D2B4C2B4A2B01392B2D2B4C23E
:0E068B00B4A2B01392B2D2B4C2B4A2B0139211
:0E069900B2D2B4C2B4A2B01392B2D2B4C2B400
:0E06A700A2B01392B2D2B4C2B4A2B01392B2F7
:0906B500D2B400C2B4F582222285
:0D06BE0090E6007412F090E60174A3F09035
:0E06CB00E6707480F00090E60274E0F000909B
:0E06D900E60374F9F00090E6047480F00090DF
:0D06E700E60B7403F00090E610E4F00090C4
:0D06F400E61174A0F00090E618E4F000900C
:0E070100E6047402F00090E61274A2F000907C
:0E070F00E61374A2F00090E61474E2F000907D
:0E071D00E61574E2F00090E6047404F000901B
:0E072B00E6047406F00090E6047408F00090F6
:0E073900E604E4F00090E60BE4F00090E649E0
:0E0747007484F00090E6497484F00090E61986
:0E075500E4F00090E6197410F00090E63274A3
:0E07630080F00090E6337404F00090E61A7403
:0E0771000CF00090E6247402F00090E625E4FF
:0E077F00F00090E6347409F00090E63574FC4A
:0E078D00F00090E61B740CF00090E62674025B
:0E079B00F00090E627E4F00090E6367441F09E
:0E07A9000090E63774FCF0000090E69174803A
:0A07B700F00090E6917480F000223B
:0807C10090E6A0E04401F022E3
:0E07C900AA8274805AC423541FFB740F5A90E6
:0C07D700E6834BF090E683E04420F02223
:0E07E30090E680E0440AF09000FA120DF690C5
:0E07F100E65D74FFF090E65F74FFF05391EF49
:0807FF0090E680E054F7F022BF
:060E2200E478FFF6D8FDA4
:060E0700751200751300D6
:0A08070090E680E0FA30E71975145E
:030811000075155A
:03081400E1751675
:0308170012751740
:03081A00E175186D
:03081D001C75192E
:03082000E1751A65
:030823006E751BD4
:02082600E122CD
:04082800751452757C
:03082C0015E1755E
:03082F00166475D7
:0308320017E17556
:03083500186E75C5
:0308380019E1754E
:03083B001A1C750F
:03083E001BE12299
:090841005391EF75A100D20232BF
:0C084A00C021C0E0C0F0C082C083C0022A
:0E085600C003C004C005C006C007C000C0013A
:0E086400C0D075D0005391EF75A100120807A7
:0E087200D0D0D001D000D007D006D005D004E1
:0D088000D003D002D083D082D0F0D0E0D0E1
:02088D00213216
:0C088F00C021C0E0C0F0C082C083C002E5
:0E089B00C003C004C005C006C007C000C001F5
:0E08A900C0D075D0005391EF75A10012080762
:0E08B700D0D0D001D000D007D006D005D0049C
:0D08C500D003D002D083D082D0F0D0E0D09C
:0208D2002132D1
:0508D400120807751C6D
:0308D90041751D49
:0808DC0008758200120C9375EF
:0308E4001C4A7536
:0608E7001D0875821012CD
:0408ED000C93751CD7
:0308F1008F751DE3
:0C08F40008758214120C9390E65C7431BD
:02090000F022E3
:0D090200E582547FFA24F75004758200222C
:07090F00BA01047582012208
:08091600530201E4BA000104E0
:03091E00F582223D
:0E092100AA82BA010C90E6A1E0FB7C008B825A
:03092F008C832294
:0E093200BA810C90E6A2E0FB7C008B828C83E5
:010940002294
:0E09410053027FEA700C90E6A0E0FB7C008B76
:04094F00828C8322F1
:0E09530090E6A3E0FB7C00EAC313FA7D00EA05
:090961002BFBED3C8B82F5832297
:0C096A00C20290E6B8E0FA530260BA0046
:03097600028028D4
:05097900BA2002800D10
:05097E00BA4002800EEA
:05098300BA60028003D0
:03098800020C2836
:06098B001207C1020C2856
:0A099100120372E5826003020C28D5
:06099B001207C1020C2846
:0D09A10090E6B8E0FA530280BA80028003AD
:0309AE00020B2910
:0B09B10090E6B9E0FABA0003020AA2C7
:0509BC00BA06028035BF
:0509C100BA08028008E5
:0509C600BA0A028017CF
:0309CB00020B23F9
:0C09CE0090E740E512F090E68AE4F0901B
:0809DA00E68B7401F0020C2809
:0C09E20090E740E513F090E68AE4F09006
:0809EE00E68B7401F0020C28F5
:0A09F60090E6BBE0FABA0102801798
:050A0000BA020280387B
:050A0500BA0302805954
:050A0A00BA0602801B8A
:050A0F00BA0702803C63
:030A1400020A9C37
:0A0A1700AA14AB1590E6B3EBF07BD8
:090A21000090E6B4EAF0020C2892
:0A0A2A00AA16AB1790E6B3EBF07BC1
:090A34000090E6B4EAF0020C287F
:0A0A3D00AA18AB1990E6B3EBF07BAA
:090A47000090E6B4EAF0020C286C
:0A0A5000AA1AAB1B90E6B3EBF07B93
:090A5A000090E6B4EAF0020C2859
:0E0A630090E6BAE0FA90E18EE0FBC3EA9B4019
:070A7100061207C1020C2868
:0C0A780090E6BAE075F002A4248FF5822D
:0B0A840074E135F0F583E0FAA3E09088
:0D0A8F00E6B3F07B0090E6B4EAF0020C281C
:060A9C001207C1020C2844
:0D0AA20090E6B8E0FA53021FBA0002800A85
:050AAF00BA0102801BEA
:050AB400BA0266802C6F
:0E0AB90090E740E4F090E741F090E68AF0907C
:080AC700E68B7402F0020C281A
:0E0ACF0090E740E4F090E741F090E68AF09066
:080ADD00E68B7402F0020C2804
:0E0AE50090E6BCE0F582120902E582602590E1
:0E0AF300E6BCE0F582120921E0FA5302019000
:0E0B0100E740EAF090E741E4F090E68AF090D9
:080B0F00E68B7402F0020C28D1
:060B17001207C1020C28C8
:060B1D001207C1020C28C2
:060B23001207C1020C28BC
:0C0B290090E6B9E0FA24F45003020C2519
:070B3500EA2A2A900B3C7331
:070B3C00020C25020B7202FE
:060B43000BED020BCE02D7
:060B49000C25020C250240
:060B4F000C25020C25023A
:060B55000C25020B6002FA
:050B5B000C25020B69EE
:090B600090E6BAE0F512020C283F
:090B690090E6BAE0F513020C2835
:0D0B720090E6B8E0FA53021FBA00028005B9
:050B7F00BA0247800AE4
:0A0B840090E6BAE01207C1020C2847
:0D0B8E0090E6BAE0703090E6BCE0F582120F
:0D0B9B000902E582602390E6BCE0F58212BD
:0E0BA8000921AA82AB83E0FC5304FE8A828BF3
:0E0BB60083ECF090E6BCE0F5821207C9806483
:050BC4001207C1805F73
:050BC9001207C1805A73
:0E0BCE0090E6B8E0FA53021FBA004F90E6BA64
:070BDC00E0FABA01028005F6
:050BE300BA020280408F
:050BE8001207C1803B73
:0E0BED0090E6BAE0FA702C90E6BCE0F58212B9
:0D0BFB000902E582601A90E6BCE0F5821266
:0E0C08000921AA82AB83E0FC4304018A828B9F
:050C160083ECF0800DED
:050C1B001207C1800872
:050C20001207C1800372
:030C25001207C1F2
:080C280090E6A0E04480F022F8
:050C3000AA82BA0300D6
:070C35004005EA249C500178
:010C3C002295
:090C3D00740F5AFBBB030280078F
:070C4600740F5AFBBB0B45C4
:0A0C4D00A2AF9203C2AFEA2400F543
:0C0C570082E43400F5837402F07B00742A
:0C0C6300012AFCE43BFDEC2400F582EDCE
:0A0C6F003400F583E51DFCF074026B
:0C0C79002AFAE43BFBEA2400F582EB348D
:0A0C850000F583AA1C7B00EAF0A230
:030C8F000392AF1E
:010C9200223F
:080C9300E582FA2483500122DE
:060C9B00EA54036001228F
:0A0CA100A2AF9204C2AFEA2400F5EE
:0C0CAB0082E43401F5837402F07B0074D5
:0C0CB700012AFCE43BFDEC2400F582ED7A
:0A0CC3003401F583E51DF074022AE8
:0B0CCD00FAE43BFBEA2400F582EB3464
:080CD80001F583AA1CEAF0A259
:040CE0000492AF22A9
:050CE400AA82BA8000A5
:070CE9004005EA244B500115
:010CF00022E1
:060CF100EA540360012239
:0A0CF700A2AF9205C2AFEA2480F517
:0C0D010082E43400F5837402F07B00747F
:0C0D0D00012AFCE43BFDEC2480F582EDA3
:0A0D19003400F583E51DF074022A92
:0B0D2300FAE43BFBEA2480F582EB348D
:080D2E0000F583AA1CEAF0A203
:040D36000592AF2251
:080D3A00C2E8C2EA751C007555
:060D42001D017582431241
:040D48000C30751CDA
:030D4C0080751D92
:0C0D4F0000758253120C300090E650E456
:0E0D5B00F00090E652E4F00090E654E4F00060
:0E0D690090E656E4F00090E65174FFF0009022
:0E0D7700E65374FFF00090E65574FFF0009014
:0E0D8500E65774FFF00090E658E4F090E6594F
:0E0D930074FFF090E65AE4F090E65B74FFF017
:0E0DA10090E65CE4F090E65D74FFF090E65E94
:0E0DAF00E4F090E65F74FFF00090E660E4F080
:0D0DBD000090E66174FFF090E662E4F090B3
:0E0DCA00E66374FFF090E665E4F090E668746E
:0A0DD8000BF05391AFD2E8D2EA22EB
:010DE20022EE
:020DE300AA82E2
:060DE500120DE2DAFB2210
:030DEB0090FB502A
:080DEE00A3E582458370F922A0
:040DF600AA82AB839F
:080DFA00120DEB1ABAFF011BF8
:050E0200EA4B70F42230
:030E1500758121C3
:0A0E18001205DAE5826003020E10F5
:00000001FF
