:06000000020DEB02006B93
:03000B0002006B85
:0300130002006B7D
:03001B0002006B75
:0300230002006B6D
:03002B0002006B65
:0300330002006B5D
:03003B0002006B55
:0300430002006B4D
:03004B0002006B45
:0300530002006B3D
:03005B0002006B35
:0300630002006B2D
:01006B003262
:0900800002006B0002006B00029B
:08008900006B0002006B000295
:08009100006B0002006B00028D
:08009900006B0002006B000285
:0800A100006B0002006B00027D
:0800A900006B0002006B000275
:0700B100006B0002006B0070
:0901000002006B0002006B00021A
:08010900006B0002006B000214
:08011100006B0002006B00020C
:08011900006B0002006B000204
:08012100006B0002006B0002FC
:08012900006B0002006B0002F4
:08013100006B0002006B0002EC
:08013900006B0002006B0002E4
:08014100006B0002006B0002DC
:08014900006B0002006B0002D4
:08015100006B0002006B0002CC
:08015900006B0002006B0002C4
:08016100006B0002006B0002BC
:08016900006B0002006B0002B4
:08017100006B0002006B0002AC
:07017900006B0002006B00A7
:030DF100020DF9F7
:030E0C00020DF4E0
:050DF4001203F180FE76
:06018000C200E4F508F5E1
:0401860009F50AD29B
:05018A0001750B00757A
:06018F000C001206001234
:0E01950005FD75CB6375CAC0758E0075C80474
:0701A300D2AFD2B0D2B122AD
:0B01AA00AA82850C827583E0EAF00554
:0501B5000C0509E4B592
:0401BA000902050A27
:0101BE00221E
:0401BF0020000122F9
:0E01C3001205FC90E6A2E0FA30E103020257BA
:0A01D100E509450A60687AC07BE783
:0E01DB008B9D7AC07BE77B008A9E90E67C7449
:0C01E90031F07460F0C3743E9509E49599
:0A01F5000A50107A3EE50924C2F515
:0601FF0009E50A34FFF5DA
:030205000A800765
:06020800AA09E4F509F566
:01020E000AE5
:0B020F008A037C007DE08D9A850B9B2C
:0E021A008A041AEC601090E67BE090E67CF01F
:080228007C007DE08D9A80EA64
:0C023000859B0B0090E68F74022BF0D22F
:03023C00CF801858
:0E023F0030CF1590E7C07431F090E7C17460C5
:0A024D00F00090E68F7402F0C2CFBB
:06025700E5AA30E00122DF
:0A025D00C3E50994C1E50A940040CE
:02026700012272
:0E02690090E690E0FB7A0090E691E0FC7D00CC
:0A027700EA4CF50DEB4DF50E7C008E
:0E0281007DF08D9A7C007DF08C9B7C007D00D2
:0A028F00C3EC950DED950E4003023F
:02029900036AF6
:07029B00E5087003020326D1
:0A02A200E50DC39CFEE50E9DFFA8CC
:0C02AC00087900C3E89EE99F5004880612
:0202B8008907B4
:0A02BA008E00E508C398F508EE2C4D
:0B02C400FCEF3DFD30012C8E008F018F
:0902CF008802890318B8FF011927
:0E02D800EA4B60B390E67BE0F582C004C005FF
:0E02E600C000C001120632D001D000D005D0F9
:0302F4000480D8AB
:0402F7008E028F03E1
:0902FB008A068B071ABAFF011BE9
:0E030400EE4F608790E67BE0F582C002C003FA
:0E031200C004C00512066F1201AAD005D00467
:06032000D003D00280D5DD
:0D03260090E67BE0FA23235401FBB40100B4
:0A0333009201EA30E707743F5AF523
:03033D0008802213
:0C03400030010F8A82C004C005120606BE
:06034C00D005D004801072
:0E0352008A82C004C0051206241201AAD0053A
:02036000D004C7
:050362000CBC00010DC0
:0303670002028F00
:08036A000090E6917480F0227E
:0E03720090E6B8E0FA20E70C90E6B9E07002E1
:02038000D200A9
:04038200758201225D
:0E03860090E6B9E0FABA902B90E6BCE025E0D4
:0A039400547FFA2400F582E43418C7
:0C039E00F583E0FB90E740F0EA04240047
:0C03AA00F582E43418F583E0FA90E74196
:0303B600F0800CC8
:0C03B90090E7407436F090E7417483F048
:0D03C50090E68AE4F090E6BEE0FABA02008D
:0903D200500790E6BEE0FA80023B
:0203DB007A02A4
:0903DD0090E68BEAF07582012222
:0603E60030020312094E73
:0503EC001201BF80F5C5
:0E03F100C2AF90E609E4F01201801206BE12BF
:0603FF000455120D1E1250
:0804050008B8D2AF1207C702CC
:02040D0003E604
:0A040F00AA82E50F54FEFBB50F02B0
:02041900802938
:0A041B008A048C05E46210ED621102
:0A042500EB2400F582E43418F5839F
:0A042F00E0FB7C006210EC6211E5B6
:060439001033C51133C5AC
:05043F001192E0F51030
:06044400AB0F050FEB24D5
:0A044A0000F582E43418F583EAF0AF
:010454002285
:07045500750F007510AA7578
:0C045C0011AA75820012040F75820012B4
:04046800040F7A0003
:0C046C00C3EA648094865017EA2408F567
:0C04780082E434E1F583E0F582C002125A
:07048400040FD0020A80E121
:02048B007A00F5
:0C048D00C3EA648094825017EA2423F52F
:0C04990082E434E1F583E0F582C0021239
:0704A500040FD0020A80E100
:0E04AC0075821C12040F75820012040F7A0074
:0C04BA00C3EA648094825017EA2402F523
:0C04C60082E434E1F583E0F582C002120C
:0704D200040FD0020A80E1D3
:0C04D9007486250FFAF582C00212040F91
:0C04E50090E196E0F58212040FD0029026
:0D04F100E196E02AFAF582C00212040F9095
:0B04FE00E1B4E0F58212040FD0029080
:0A050900E1B4E02AF58212040F901D
:0A051300E1DEE0F58212040F7A0029
:0E051D0090E196E0FBC3EA64808BF063F0800F
:0B052B0095F05017EA2496F582E434A6
:0C053600E1F583E0F582C00212040FD052
:04054200020A80D752
:020546007A0039
:0E05480090E1B4E0FBC3EA64808BF063F080C6
:0B05560095F05017EA24B4F582E4345D
:0C056100E1F583E0F582C00212040FD027
:04056D00020A80D727
:020571007A000E
:0E05730090E1DEE0FBC3EA64808BF063F08071
:0B05810095F05017EA24DEF582E43408
:0C058C00E1F583E0F582C00212040FD0FC
:04059800020A80D7FC
:02059C007A00E3
:0C059E00C3EA648094845017EA240EF530
:0C05AA0082E434E1F583E0F582C0021227
:0705B600040FD0020A80E1EE
:0C05BD007482250F400875820012040FA4
:0205C90080F2BE
:0805CB00AA1090187EEAF0AAC4
:0705D3001190187FEAF022ED
:0805DA007880E84400600C7910
:0C05E20001901800E4F0A3D8FCD9FAD076
:0E05EE0083D082F6D8FDC082C08375820022C1
:02E1000012010A
:06E10200000200000040D5
:06E10800C016EF03040045
:04E10E000102030106
:0AE112000A060002FFFFFF400100B3
:07E11C0009022E00010100C1
:0EE1230080FA0904000004FFFFFF02070581D7
:0EE131000200020007050202000200070504BA
:0BE13F0002000200070586020002003B
:0EE14A001201000200000040C016EF030400A6
:04E1580001020301BC
:0AE15C000A060002FFFFFF40010069
:0EE166000902200001010080FA0904000002F5
:0EE17400FFFFFF0207058102400000070502C1
:04E182000240000057
:01E186000494
:02E1870090E125
:02E1890096E11D
:02E18B00B4E1FD
:02E18D00DEE1D1
:06E1900006030000090473
:0EE196001E037700770077002E0072006500F0
:0EE1A400740072006F00310031002E00640024
:02E1B200650006
:0EE1B4002A036E0065007800790073003300C6
:0EE1C2005F006A007400610067005F003200B9
:0EE1D0006600690066006F005F006900630072
:0EE1DE001203300030003000300030003000FE
:04E1EC0030003000CF
:0105FC0022DC
:0105FD0022DB
:0105FE0022DA
:0105FF0022D9
:060600009001F4020DDA86
:0E060600AA82ABB574FE5BF5F0741C45F0F5EE
:0E061400B5EA1392B4EAA2E192B3EAA2E4922C
:02062200B22202
:0E062400120606A2B0E433FA74024AF58222EE
:0E063200E5821392B2D2B413C2B492B2D2B423
:0E06400013C2B492B2D2B413C2B492B2D2B406
:0E064E0013C2B492B2D2B413C2B492B2D2B4F8
:0E065C0013C2B492B2D2B413C2B492B2D2B4EA
:05066A0000C2B42222D1
:0E066F00E582A2B01392B2D2B4C2B4A2B0130C
:0E067D0092B2D2B4C2B4A2B01392B2D2B4C23E
:0E068B00B4A2B01392B2D2B4C2B4A2B0139211
:0E069900B2D2B4C2B4A2B01392B2D2B4C2B400
:0E06A700A2B01392B2D2B4C2B4A2B01392B2F7
:0906B500D2B400C2B4F582222285
:0D06BE0090E6007412F090E60174A3F09035
:0E06CB00E6707480F00090E60274E0F000909B
:0E06D900E60374F9F00090E6047480F00090DF
:0D06E700E60B7403F00090E610E4F00090C4
:0D06F400E61174A0F00090E618E4F000900C
:0E070100E6047402F00090E61274A2F000907C
:0E070F00E61374A2F00090E61474E0F000907F
:0E071D00E6157402F00090E6047404F00090FB
:0E072B00E6047406F00090E6047408F00090F6
:0E073900E604E4F00090E60BE4F00090E649E0
:0E0747007484F00090E6497484F00090E61986
:0E075500E4F00090E6197410F00090E63274A3
:0E07630080F00090E6337404F00090E61A7403
:0E0771000CF00090E6247402F00090E625E4FF
:0E077F00F00090E6347419F00090E63574FC3A
:0E078D00F00090E61BE4F0000090E69174800E
:0A079B00F00090E6917480F0002257
:0807A50090E6A0E04401F022FF
:0E07AD00AA8274805AC423541FFB740F5A9002
:0C07BB00E6834BF090E683E04420F0223F
:0E07C70090E680E0440AF09000FA120DDA90FD
:0E07D500E65D74FFF090E65F74FFF05391EF65
:0807E30090E680E054F7F022DB
:060E0600E478FFF6D8FDC0
:060DEB00751200751300F3
:0A07EB0090E680E0FA30E71975147B
:0307F50000751577
:0307F800E1751692
:0307FB001275175D
:0307FE00E175188A
:030801001C75194A
:03080400E1751A81
:0308070066751BF8
:02080A00E122E9
:04080C0075144A75A0
:0308100015E1757A
:03081300165C75FB
:0308160017E17572
:03081900186675E9
:03081C0019E1756A
:03081F001A1C752B
:030822001BE122B5
:090825005391EF75A100D20232DB
:0C082E00C021C0E0C0F0C082C083C00246
:0E083A00C003C004C005C006C007C000C00156
:0E084800C0D075D0005391EF75A1001207EBE0
:0E085600D0D0D001D000D007D006D005D004FD
:0D086400D003D002D083D082D0F0D0E0D0FD
:02087100213232
:0C087300C021C0E0C0F0C082C083C00201
:0E087F00C003C004C005C006C007C000C00111
:0E088D00C0D075D0005391EF75A1001207EB9B
:0E089B00D0D0D001D000D007D006D005D004B8
:0D08A900D003D002D083D082D0F0D0E0D0B8
:0208B6002132ED
:0508B8001207EB751CA6
:0308BD0025751D81
:0808C00008758200120C777527
:0308C8001C2E756E
:0608CB001D0875821012E9
:0408D1000C77751C0F
:0308D50073751D1B
:0C08D80008758214120C7790E65C7431F5
:0208E400F02200
:0D08E600E582547FFA24F750047582002249
:0708F300BA01047582012225
:0808FA00530201E4BA000104FD
:03090200F5822259
:0E090500AA82BA010C90E6A1E0FB7C008B8276
:030913008C8322B0
:0E091600BA810C90E6A2E0FB7C008B828C8301
:0109240022B0
:0E09250053027FEA700C90E6A0E0FB7C008B92
:04093300828C83220D
:0E09370090E6A3E0FB7C00EAC313FA7D00EA21
:090945002BFBED3C8B82F58322B3
:0C094E00C20290E6B8E0FA530260BA0062
:03095A00028028F0
:05095D00BA2002800D2C
:05096200BA4002800E06
:05096700BA60028003EC
:03096C00020C0C6E
:06096F001207A5020C0CAA
:0A097500120372E5826003020C0C0D
:06097F001207A5020C0C9A
:0D09850090E6B8E0FA530280BA80028003C9
:03099200020B0D48
:0B09950090E6B9E0FABA0003020A86FF
:0509A000BA06028035DB
:0509A500BA0802800801
:0509AA00BA0A028017EB
:0309AF00020B0731
:0C09B20090E740E512F090E68AE4F09037
:0809BE00E68B7401F0020C0C41
:0C09C60090E740E513F090E68AE4F09022
:0809D200E68B7401F0020C0C2D
:0A09DA0090E6BBE0FABA01028017B4
:0509E400BA0202803898
:0509E900BA0302805971
:0509EE00BA0602801BA7
:0509F300BA0702803C80
:0309F800020A8070
:0A09FB00AA14AB1590E6B3EBF07BF5
:090A05000090E6B4EAF0020C0CCA
:0A0A0E00AA16AB1790E6B3EBF07BDD
:090A18000090E6B4EAF0020C0CB7
:0A0A2100AA18AB1990E6B3EBF07BC6
:090A2B000090E6B4EAF0020C0CA4
:0A0A3400AA1AAB1B90E6B3EBF07BAF
:090A3E000090E6B4EAF0020C0C91
:0E0A470090E6BAE0FA90E186E0FBC3EA9B403D
:070A5500061207A5020C0CBC
:0C0A5C0090E6BAE075F002A42487F58251
:0B0A680074E135F0F583E0FAA3E090A4
:0D0A7300E6B3F07B0090E6B4EAF0020C0C54
:060A80001207A5020C0C98
:0D0A860090E6B8E0FA53021FBA0002800AA1
:050A9300BA0102801B06
:050A9800BA0266802C8B
:0E0A9D0090E740E4F090E741F090E68AF09098
:080AAB00E68B7402F0020C0C52
:0E0AB30090E740E4F090E741F090E68AF09082
:080AC100E68B7402F0020C0C3C
:0E0AC90090E6BCE0F5821208E6E5826025901A
:0E0AD700E6BCE0F582120905E0FA5302019038
:0E0AE500E740EAF090E741E4F090E68AF090F6
:080AF300E68B7402F0020C0C0A
:060AFB001207A5020C0C1D
:060B01001207A5020C0C16
:060B07001207A5020C0C10
:0C0B0D0090E6B9E0FA24F45003020C0951
:070B1900EA2A2A900B207369
:070B2000020C09020B560252
:060B27000BD1020BB2022B
:060B2D000C09020C090294
:060B33000C09020C09028E
:060B39000C09020B44024E
:050B3F000C09020B4D42
:090B440090E6BAE0F512020C0C77
:090B4D0090E6BAE0F513020C0C6D
:0D0B560090E6B8E0FA53021FBA00028005D5
:050B6300BA0247800A00
:0A0B680090E6BAE01207A5020C0C9B
:0D0B720090E6BAE0703090E6BCE0F582122B
:0D0B7F0008E6E582602390E6BCE0F58212F6
:0E0B8C000905AA82AB83E0FC5304FE8A828B2B
:0E0B9A0083ECF090E6BCE0F5821207AD8064BB
:050BA8001207A5805FAB
:050BAD001207A5805AAB
:0E0BB20090E6B8E0FA53021FBA004F90E6BA80
:070BC000E0FABA0102800512
:050BC700BA02028040AB
:050BCC001207A5803BAB
:0E0BD10090E6BAE0FA702C90E6BCE0F58212D5
:0D0BDF0008E6E582601A90E6BCE0F582129F
:0E0BEC000905AA82AB83E0FC4304018A828BD8
:050BFA0083ECF0800D0A
:050BFF001207A58008AB
:050C04001207A58003AA
:030C09001207A52A
:080C0C0090E6A0E04480F02214
:050C1400AA82BA0300F2
:070C19004005EA249C500194
:010C200022B1
:090C2100740F5AFBBB03028007AB
:070C2A00740F5AFBBB0B45E0
:0A0C3100A2AF9203C2AFEA2400F55F
:0C0C3B0082E43400F5837402F07B007446
:0C0C4700012AFCE43BFDEC2400F582EDEA
:0A0C53003400F583E51DFCF0740287
:0C0C5D002AFAE43BFBEA2400F582EB34A9
:0A0C690000F583AA1C7B00EAF0A24C
:030C73000392AF3A
:010C7600225B
:080C7700E582FA2483500122FA
:060C7F00EA5403600122AB
:0A0C8500A2AF9204C2AFEA2400F50A
:0C0C8F0082E43401F5837402F07B0074F1
:0C0C9B00012AFCE43BFDEC2400F582ED96
:0A0CA7003401F583E51DF074022A04
:0B0CB100FAE43BFBEA2400F582EB3480
:080CBC0001F583AA1CEAF0A275
:040CC4000492AF22C5
:050CC800AA82BA8000C1
:070CCD004005EA244B500131
:010CD40022FD
:060CD500EA540360012255
:0A0CDB00A2AF9205C2AFEA2480F533
:0C0CE50082E43400F5837402F07B00749C
:0C0CF100012AFCE43BFDEC2480F582EDC0
:0A0CFD003400F583E51DF074022AAF
:0B0D0700FAE43BFBEA2480F582EB34A9
:080D120000F583AA1CEAF0A21F
:040D1A000592AF226D
:080D1E00C2E8C2EA751C007571
:060D26001D01758243125D
:040D2C000C14751C12
:030D300080751DAE
:0C0D330000758253120C140090E650E48E
:0E0D3F00F00090E652E4F00090E654E4F0007C
:0E0D4D0090E656E4F00090E65174FFF000903E
:0E0D5B00E65374FFF00090E65574FFF0009030
:0E0D6900E65774FFF00090E658E4F090E6596B
:0E0D770074FFF090E65AE4F090E65B74FFF033
:0E0D850090E65CE4F090E65D74FFF090E65EB0
:0E0D9300E4F090E65F74FFF00090E660E4F09C
:0D0DA1000090E66174FFF090E662E4F090CF
:0E0DAE00E66374FFF090E665E4F090E668748A
:0A0DBC000BF05391AFD2E8D2EA2207
:010DC600220A
:020DC700AA82FE
:060DC900120DC6DAFB2248
:030DCF0090FB5046
:080DD200A3E582458370F922BC
:040DDA00AA82AB83BB
:080DDE00120DCF1ABAFF011B30
:050DE600EA4B70F4224D
:030DF900758121E0
:0A0DFC001205DAE5826003020DF42F
:00000001FF
