:06000000020DE602006B98
:03000B0002006B85
:0300130002006B7D
:03001B0002006B75
:0300230002006B6D
:03002B0002006B65
:0300330002006B5D
:03003B0002006B55
:0300430002006B4D
:03004B0002006B45
:0300530002006B3D
:03005B0002006B35
:0300630002006B2D
:01006B003262
:0900800002006B0002006B00029B
:08008900006B0002006B000295
:08009100006B0002006B00028D
:08009900006B0002006B000285
:0800A100006B0002006B00027D
:0800A900006B0002006B000275
:0700B100006B0002006B0070
:0901000002006B0002006B00021A
:08010900006B0002006B000214
:08011100006B0002006B00020C
:08011900006B0002006B000204
:08012100006B0002006B0002FC
:08012900006B0002006B0002F4
:08013100006B0002006B0002EC
:08013900006B0002006B0002E4
:08014100006B0002006B0002DC
:08014900006B0002006B0002D4
:08015100006B0002006B0002CC
:08015900006B0002006B0002C4
:08016100006B0002006B0002BC
:08016900006B0002006B0002B4
:08017100006B0002006B0002AC
:07017900006B0002006B00A7
:030DEC00020DF401
:030E0700020DEFEA
:050DEF001203F180FE7B
:06018000C200E4F508F5E1
:0401860009F50AD29B
:05018A0001750B00757A
:06018F000C001205FB123A
:0E01950005F875CB6375CAC0758E0075C80479
:0701A300D2AFD2B0D2B122AD
:0B01AA00AA82850C827583E0EAF00554
:0501B5000C0509E4B592
:0401BA000902050A27
:0101BE00221E
:0401BF0020000122F9
:0E01C3001205F790E6A2E0FA30E103020257BF
:0A01D100E509450A60687AC07BE783
:0E01DB008B9D7AC07BE77B008A9E90E67C7449
:0C01E90031F07460F0C3743E9509E49599
:0A01F5000A50107A3EE50924C2F515
:0601FF0009E50A34FFF5DA
:030205000A800765
:06020800AA09E4F509F566
:01020E000AE5
:0B020F008A037C007DE08D9A850B9B2C
:0E021A008A041AEC601090E67BE090E67CF01F
:080228007C007DE08D9A80EA64
:0C023000859B0B0090E68F74022BF0D22F
:03023C00CF801858
:0E023F0030CF1590E7C07431F090E7C17460C5
:0A024D00F00090E68F7402F0C2CFBB
:06025700E5AA30E00122DF
:0A025D00C3E50994C1E50A940040CE
:02026700012272
:0E02690090E690E0FB7A0090E691E0FC7D00CC
:0A027700EA4CF50DEB4DF50E7C008E
:0E0281007DF08D9A7C007DF08C9B7C007D00D2
:0A028F00C3EC950DED950E4003023F
:02029900036AF6
:07029B00E5087003020326D1
:0A02A200E50DC39CFEE50E9DFFA8CC
:0C02AC00087900C3E89EE99F5004880612
:0202B8008907B4
:0A02BA008E00E508C398F508EE2C4D
:0B02C400FCEF3DFD30012C8E008F018F
:0902CF008802890318B8FF011927
:0E02D800EA4B60B390E67BE0F582C004C005FF
:0E02E600C000C00112062DD001D000D005D0FE
:0302F4000480D8AB
:0402F7008E028F03E1
:0902FB008A068B071ABAFF011BE9
:0E030400EE4F608790E67BE0F582C002C003FA
:0E031200C004C00512066A1201AAD005D0046C
:06032000D003D00280D5DD
:0D03260090E67BE0FA23235401FBB40100B4
:0A0333009201EA30E707743F5AF523
:03033D0008802213
:0C03400030010F8A82C004C005120601C3
:06034C00D005D004801072
:0E0352008A82C004C00512061F1201AAD0053F
:02036000D004C7
:050362000CBC00010DC0
:0303670002028F00
:08036A000090E6917480F0227E
:0E03720090E6B8E0FA20E70C90E6B9E07002E1
:02038000D200A9
:04038200758201225D
:0E03860090E6B9E0FABA902B90E6BCE025E0D4
:0A039400547FFA2400F582E43418C7
:0C039E00F583E0FB90E740F0EA04240047
:0C03AA00F582E43418F583E0FA90E74196
:0303B600F0800CC8
:0C03B90090E7407436F090E7417483F048
:0D03C50090E68AE4F090E6BEE0FABA02008D
:0903D200500790E6BEE0FA80023B
:0203DB007A02A4
:0903DD0090E68BEAF07582012222
:0603E60030020312094978
:0503EC001201BF80F5C5
:0903F100C2AF1201801206B9121C
:0603FA000450120D19125F
:0804000008B3D2AF1207C202DB
:0204080003E609
:0A040A00AA82E50F54FEFBB50F02B5
:0204140080293D
:0A0416008A048C05E46210ED621107
:0A042000EB2400F582E43418F583A4
:0A042A00E0FB7C006210EC6211E5BB
:060434001033C51133C5B1
:05043A001192E0F51035
:06043F00AB0F050FEB24DA
:0A04450000F582E43418F583EAF0B4
:01044F00228A
:07045000750F007510AA757D
:0C04570011AA75820012040A75820012BE
:04046300040A7A000D
:0C046700C3EA648094865017EA2408F56C
:0C04730082E434E1F583E0F582C002125F
:07047F00040AD0020A80E12B
:020486007A00FA
:0C048800C3EA648094825017EA2423F534
:0C04940082E434E1F583E0F582C002123E
:0704A000040AD0020A80E10A
:0E04A70075821C12040A75820012040A7A0083
:0C04B500C3EA648094825017EA2402F528
:0C04C10082E434E1F583E0F582C0021211
:0704CD00040AD0020A80E1DD
:0C04D4007486250FFAF582C00212040A9B
:0C04E00090E196E0F58212040AD0029030
:0D04EC00E196E02AFAF582C00212040A909F
:0B04F900E1B4E0F58212040AD002908A
:0A050400E1B4E02AF58212040A9027
:0A050E00E1DEE0F58212040A7A0033
:0E05180090E196E0FBC3EA64808BF063F08014
:0B05260095F05017EA2496F582E434AB
:0C053100E1F583E0F582C00212040AD05C
:04053D00020A80D757
:020541007A003E
:0E05430090E1B4E0FBC3EA64808BF063F080CB
:0B05510095F05017EA24B4F582E43462
:0C055C00E1F583E0F582C00212040AD031
:04056800020A80D72C
:02056C007A0013
:0E056E0090E1DEE0FBC3EA64808BF063F08076
:0B057C0095F05017EA24DEF582E4340D
:0C058700E1F583E0F582C00212040AD006
:04059300020A80D701
:020597007A00E8
:0C059900C3EA648094845017EA240EF535
:0C05A50082E434E1F583E0F582C002122C
:0705B100040AD0020A80E1F8
:0C05B8007482250F400875820012040AAE
:0205C40080F2C3
:0805C600AA1090187EEAF0AAC9
:0705CE001190187FEAF022F2
:0805D5007880E84400600C7915
:0C05DD0001901800E4F0A3D8FCD9FAD07B
:0E05E90083D082F6D8FDC082C08375820022C6
:02E1000012010A
:06E10200000200000040D5
:06E10800C016EF03040045
:04E10E000102030106
:0AE112000A060002FFFFFF400100B3
:07E11C0009022E00010100C1
:0EE1230080FA0904000004FFFFFF02070581D7
:0EE131000200020007050202000200070504BA
:0BE13F0002000200070586020002003B
:0EE14A001201000200000040C016EF030400A6
:04E1580001020301BC
:0AE15C000A060002FFFFFF40010069
:0EE166000902200001010080FA0904000002F5
:0EE17400FFFFFF0207058102400000070502C1
:04E182000240000057
:01E186000494
:02E1870090E125
:02E1890096E11D
:02E18B00B4E1FD
:02E18D00DEE1D1
:06E1900006030000090473
:0EE196001E037700770077002E0072006500F0
:0EE1A400740072006F00310031002E00640024
:02E1B200650006
:0EE1B4002A036E0065007800790073003300C6
:0EE1C2005F006A007400610067005F003200B9
:0EE1D0006600690066006F005F006900630072
:0EE1DE001203300030003000300030003000FE
:04E1EC0030003000CF
:0105F70022E1
:0105F80022E0
:0105F90022DF
:0105FA0022DE
:0605FB009001F4020DD591
:0E060100AA82ABB574FE5BF5F0741C45F0F5F3
:0E060F00B5EA1392B4EAA2E192B3EAA2E49231
:02061D00B22207
:0E061F00120601A2B0E433FA74024AF58222F8
:0E062D00E5821392B2D2B413C2B492B2D2B428
:0E063B0013C2B492B2D2B413C2B492B2D2B40B
:0E06490013C2B492B2D2B413C2B492B2D2B4FD
:0E06570013C2B492B2D2B413C2B492B2D2B4EF
:0506650000C2B42222D6
:0E066A00E582A2B01392B2D2B4C2B4A2B01311
:0E06780092B2D2B4C2B4A2B01392B2D2B4C243
:0E068600B4A2B01392B2D2B4C2B4A2B0139216
:0E069400B2D2B4C2B4A2B01392B2D2B4C2B405
:0E06A200A2B01392B2D2B4C2B4A2B01392B2FC
:0906B000D2B400C2B4F58222228A
:0D06B90090E6007412F090E60174A3F0903A
:0E06C600E6707480F00090E60274E0F00090A0
:0E06D400E60374F9F00090E6047480F00090E4
:0D06E200E60B7403F00090E610E4F00090C9
:0D06EF00E61174A0F00090E618E4F0009011
:0E06FC00E6047402F00090E61274A2F0009082
:0E070A00E61374A2F00090E61474E0F0009084
:0E071800E6157402F00090E6047404F0009000
:0E072600E6047406F00090E6047408F00090FB
:0E073400E604E4F00090E60BE4F00090E649E5
:0E0742007484F00090E6497484F00090E6198B
:0E075000E4F00090E6197410F00090E63274A8
:0E075E0080F00090E6337404F00090E61A7408
:0E076C000CF00090E6247402F00090E625E404
:0E077A00F00090E6347419F00090E63574FC3F
:0E078800F00090E61BE4F0000090E691748013
:0A079600F00090E6917480F000225C
:0807A00090E6A0E04401F02204
:0E07A800AA8274805AC423541FFB740F5A9007
:0C07B600E6834BF090E683E04420F02244
:0E07C20090E680E0440AF09000FA120DD59007
:0E07D000E65D74FFF090E65F74FFF05391EF6A
:0807DE0090E680E054F7F022E0
:060E0100E478FFF6D8FDC5
:060DE600751200751300F8
:0A07E60090E680E0FA30E719751480
:0307F0000075157C
:0307F300E1751697
:0307F60012751762
:0307F900E175188F
:0307FC001C751950
:0307FF00E1751A87
:0308020066751BFD
:02080500E122EE
:0408070075144A75A5
:03080B0015E1757F
:03080E00165C7500
:0308110017E17577
:03081400186675EE
:0308170019E1756F
:03081A001A1C7530
:03081D001BE122BA
:090820005391EF75A100D20232E0
:0C082900C021C0E0C0F0C082C083C0024B
:0E083500C003C004C005C006C007C000C0015B
:0E084300C0D075D0005391EF75A1001207E6EA
:0E085100D0D0D001D000D007D006D005D00402
:0D085F00D003D002D083D082D0F0D0E0D002
:02086C00213237
:0C086E00C021C0E0C0F0C082C083C00206
:0E087A00C003C004C005C006C007C000C00116
:0E088800C0D075D0005391EF75A1001207E6A5
:0E089600D0D0D001D000D007D006D005D004BD
:0D08A400D003D002D083D082D0F0D0E0D0BD
:0208B1002132F2
:0508B3001207E6751CB0
:0308B80020751D8B
:0808BB0008758200120C727531
:0308C3001C297578
:0608C6001D0875821012EE
:0408CC000C72751C19
:0308D0006E751D25
:0C08D30008758214120C7290E65C7431FF
:0208DF00F02205
:0D08E100E582547FFA24F75004758200224E
:0708EE00BA0104758201222A
:0808F500530201E4BA00010402
:0308FD00F582225F
:0E090000AA82BA010C90E6A1E0FB7C008B827B
:03090E008C8322B5
:0E091100BA810C90E6A2E0FB7C008B828C8306
:01091F0022B5
:0E09200053027FEA700C90E6A0E0FB7C008B97
:04092E00828C832212
:0E09320090E6A3E0FB7C00EAC313FA7D00EA26
:090940002BFBED3C8B82F58322B8
:0C094900C20290E6B8E0FA530260BA0067
:03095500028028F5
:05095800BA2002800D31
:05095D00BA4002800E0B
:05096200BA60028003F1
:03096700020C0778
:06096A001207A0020C07B9
:0A097000120372E5826003020C0717
:06097A001207A0020C07A9
:0D09800090E6B8E0FA530280BA80028003CE
:03098D00020B0852
:0B09900090E6B9E0FABA0003020A8109
:05099B00BA06028035E0
:0509A000BA0802800806
:0509A500BA0A028017F0
:0309AA00020B023B
:0C09AD0090E740E512F090E68AE4F0903C
:0809B900E68B7401F0020C074B
:0C09C10090E740E513F090E68AE4F09027
:0809CD00E68B7401F0020C0737
:0A09D50090E6BBE0FABA01028017B9
:0509DF00BA020280389D
:0509E400BA0302805976
:0509E900BA0602801BAC
:0509EE00BA0702803C85
:0309F300020A7B7A
:0A09F600AA14AB1590E6B3EBF07BFA
:090A00000090E6B4EAF0020C07D4
:0A0A0900AA16AB1790E6B3EBF07BE2
:090A13000090E6B4EAF0020C07C1
:0A0A1C00AA18AB1990E6B3EBF07BCB
:090A26000090E6B4EAF0020C07AE
:0A0A2F00AA1AAB1B90E6B3EBF07BB4
:090A39000090E6B4EAF0020C079B
:0E0A420090E6BAE0FA90E186E0FBC3EA9B4042
:070A5000061207A0020C07CB
:0C0A570090E6BAE075F002A42487F58256
:0B0A630074E135F0F583E0FAA3E090A9
:0D0A6E00E6B3F07B0090E6B4EAF0020C075E
:060A7B001207A0020C07A7
:0D0A810090E6B8E0FA53021FBA0002800AA6
:050A8E00BA0102801B0B
:050A9300BA0266802C90
:0E0A980090E740E4F090E741F090E68AF0909D
:080AA600E68B7402F0020C075C
:0E0AAE0090E740E4F090E741F090E68AF09087
:080ABC00E68B7402F0020C0746
:0E0AC40090E6BCE0F5821208E1E58260259024
:0E0AD200E6BCE0F582120900E0FA5302019042
:0E0AE000E740EAF090E741E4F090E68AF090FB
:080AEE00E68B7402F0020C0714
:060AF6001207A0020C072C
:060AFC001207A0020C0726
:060B02001207A0020C071F
:0C0B080090E6B9E0FA24F45003020C045B
:070B1400EA2A2A900B1B7373
:070B1B00020C04020B510261
:060B22000BCC020BAD023A
:060B28000C04020C0402A3
:060B2E000C04020C04029D
:060B34000C04020B3F025D
:050B3A000C04020B4851
:090B3F0090E6BAE0F512020C0781
:090B480090E6BAE0F513020C0777
:0D0B510090E6B8E0FA53021FBA00028005DA
:050B5E00BA0247800A05
:0A0B630090E6BAE01207A0020C07AA
:0D0B6D0090E6BAE0703090E6BCE0F5821230
:0D0B7A0008E1E582602390E6BCE0F5821200
:0E0B87000900AA82AB83E0FC5304FE8A828B35
:0E0B950083ECF090E6BCE0F5821207A88064C5
:050BA3001207A0805FB5
:050BA8001207A0805AB5
:0E0BAD0090E6B8E0FA53021FBA004F90E6BA85
:070BBB00E0FABA0102800517
:050BC200BA02028040B0
:050BC7001207A0803BB5
:0E0BCC0090E6BAE0FA702C90E6BCE0F58212DA
:0D0BDA0008E1E582601A90E6BCE0F58212A9
:0E0BE7000900AA82AB83E0FC4304018A828BE2
:050BF50083ECF0800D0F
:050BFA001207A08008B5
:050BFF001207A08003B5
:030C04001207A034
:080C070090E6A0E04480F02219
:050C0F00AA82BA0300F7
:070C14004005EA249C500199
:010C1B0022B6
:090C1C00740F5AFBBB03028007B0
:070C2500740F5AFBBB0B45E5
:0A0C2C00A2AF9203C2AFEA2400F564
:0C0C360082E43400F5837402F07B00744B
:0C0C4200012AFCE43BFDEC2400F582EDEF
:0A0C4E003400F583E51DFCF074028C
:0C0C58002AFAE43BFBEA2400F582EB34AE
:0A0C640000F583AA1C7B00EAF0A251
:030C6E000392AF3F
:010C71002260
:080C7200E582FA2483500122FF
:060C7A00EA5403600122B0
:0A0C8000A2AF9204C2AFEA2400F50F
:0C0C8A0082E43401F5837402F07B0074F6
:0C0C9600012AFCE43BFDEC2400F582ED9B
:0A0CA2003401F583E51DF074022A09
:0B0CAC00FAE43BFBEA2400F582EB3485
:080CB70001F583AA1CEAF0A27A
:040CBF000492AF22CA
:050CC300AA82BA8000C6
:070CC8004005EA244B500136
:010CCF002202
:060CD000EA54036001225A
:0A0CD600A2AF9205C2AFEA2480F538
:0C0CE00082E43400F5837402F07B0074A1
:0C0CEC00012AFCE43BFDEC2480F582EDC5
:0A0CF8003400F583E51DF074022AB4
:0B0D0200FAE43BFBEA2480F582EB34AE
:080D0D0000F583AA1CEAF0A224
:040D15000592AF2272
:080D1900C2E8C2EA751C007576
:060D21001D017582431262
:040D27000C0F751C1C
:030D2B0080751DB3
:0C0D2E0000758253120C0F0090E650E498
:0E0D3A00F00090E652E4F00090E654E4F00081
:0E0D480090E656E4F00090E65174FFF0009043
:0E0D5600E65374FFF00090E65574FFF0009035
:0E0D6400E65774FFF00090E658E4F090E65970
:0E0D720074FFF090E65AE4F090E65B74FFF038
:0E0D800090E65CE4F090E65D74FFF090E65EB5
:0E0D8E00E4F090E65F74FFF00090E660E4F0A1
:0D0D9C000090E66174FFF090E662E4F090D4
:0E0DA900E66374FFF090E665E4F090E668748F
:0A0DB7000BF05391AFD2E8D2EA220C
:010DC100220F
:020DC200AA8203
:060DC400120DC1DAFB2252
:030DCA0090FB504B
:080DCD00A3E582458370F922C1
:040DD500AA82AB83C0
:080DD900120DCA1ABAFF011B3A
:050DE100EA4B70F42252
:030DF400758121E5
:0A0DF7001205D5E5826003020DEF3E
:00000001FF
