:06000000020E7502006B08
:03000B0002006B85
:0300130002006B7D
:03001B0002006B75
:0300230002006B6D
:03002B0002006B65
:0300330002006B5D
:03003B0002006B55
:0300430002006B4D
:03004B0002006B45
:0300530002006B3D
:03005B0002006B35
:0300630002006B2D
:01006B003262
:2000800002006B0002006B0002006B0002006B0002006B0002006B0002006B0002006B00F8
:1800A00002006B0002006B0002006B0002006B0002006B0002006B00BA
:2001000002006B0002006B0002006B0002006B0002006B0002006B0002006B0002006B0077
:2001200002006B0002006B0002006B0002006B0002006B0002006B0002006B0002006B0057
:2001400002006B0002006B0002006B0002006B0002006B0002006B0002006B0002006B0037
:2001600002006B0002006B0002006B0002006B0002006B0002006B0002006B0002006B0017
:030E7B00020E81E3
:030E9400020E7ECD
:030E7E000203F478
:20018000C200E4F508F509F50AD201750B00750C001205FC1205F975CB6375CAC0758E0023
:2001A00075C804D2AFD2B0D2B122AF82850C827583E0EFF0050C0509E4B50902050A222047
:2001C0000001221205F890E6A2E0FF30E10302025BE509450A606A7EC07FE78F9D7EC07FEF
:2001E000E77F008E9E90E67C7431F07460F0C3743E9509E4950A50107F3EE50924C2F5099D
:20020000E50A34FFF50A8007AF09E4F509F50A8F067C007DE08D9A850B9B8F051FED6010CD
:2002200090E67BE090E67CF07C007DE08D9A80EA859B0B00000090E68F74022EF0D2CF80BC
:200240001A30CF1790E7C07431F090E7C17460F000000090E68F7402F0C2CFE5AA30E0010A
:2002600022C3E50994C1E50A940040012290E690E0FE7F0090E691E0FD7C00EF4DF50DEE81
:200280004CF50E7C007DF08D9A7C007DF08C9B7C007D00C3EC950DED950E400302036BE57D
:2002A00008700302032AE50DC39CFAE50E9DFBA8087900C3E89AE99B5004880289038A01D7
:2002C000E508C399F508EA2CFCEB3DFD30012C8A008B018806890718B8FF0119EE4F60B3D7
:2002E00090E67BE0F582C005C004C001C000120630D000D001D004D00580D88A068B078E12
:20030000028F031EBEFF011FEA4B608790E67BE0F582C007C006C005C00412066D1201AA92
:20032000D004D005D006D00780D590E67BE0FFA2E69202B39201EF30E707743F5FF5088044
:200340002230010F8F82C005C004120602D004D00580108F82C005C0041206221201AAD0ED
:2003600004D0050CBC00010D02029300000090E6917480F02290E6B8E0FF20E70C90E6B9DB
:20038000E07002D2007582012290E6B9E0FFBF902B90E6BCE025E0547FFF2400F582E434FB
:2003A00018F583E0FE90E740F0EF042400F582E43418F583E0FF90E741F0800C90E74074B4
:2003C00036F090E7417483F090E68AE4F090E6BEE0FFBF0200500790E6BEE0FF80027F0243
:2003E00090E68BEFF0758201223004031209B31201BF80F5C2AF90E609E4F0120180120648
:12040000BC120459120D8112091AD2AF1208080203E959
:20041200AF82E50F54FEFEB50F02802A8F048C05E4FC6210ED6211EE2400F582E43418F561
:2004320083E0FE7D006210ED6211E51033C51133C51192E0F510AE0F050FEE2400F582E43E
:200452003418F583EFF022750F007510AA7511AA7582001204127582001204127F00EF2412
:2004720008F582E434E1F583E0F582C007120412D0070FC3EF6480948640E37F00EF2423C6
:20049200F582E434E1F583E0F582C007120412D0070FC3EF6480948240E375821C1204122C
:2004B2007582001204127F00EF2402F582E434E1F583E0F582C007120412D0070FC3EF644D
:2004D20080948240E37486250FFFF582C00712041290E194E0F582120412D00790E194E07E
:2004F2002FFFF582C00712041290E1B2E0F582120412D00790E1B2E02FF58212041290E19B
:20051200DCE0F5821204127F0090E194E0FEC3EF64808EF063F08095F05017EF2494F5821B
:20053200E434E1F583E0F582C007120412D0070F80D77F0090E1B2E0FEC3EF64808EF063BE
:20055200F08095F05017EF24B2F582E434E1F583E0F582C007120412D0070F80D77F0090EE
:20057200E1DCE0FEC3EF64808EF063F08095F05017EF24DCF582E434E1F583E0F582C00706
:20059200120412D0070F80D77F00EF240EF582E434E1F583E0F582C007120412D0070FC36D
:2005B200EF6480948440E37482250F400875820012041280F2AE1090187EEEF0AF119018EE
:2005D2007FEFF0227880E84400600C7901901800E4F0A3D8FCD9FAD083D082F6D8FDC08207
:0605F200C08375820022A7
:20E100001201000200000040C016EF030400010203010A060002FFFFFF40010009022E004E
:20E1200001010080FA0904000004FFFFFF020705810200020007050202000200070504029E
:20E14000000200070586020002001201000200000040C016EF030400010203010A060002ED
:20E16000FFFFFF4001000902200001010080FA0904000002FFFFFF020705810240000007D6
:0FE180000502024000000490E194E1B2E1DCE10D
:20E19000040309041E037700770077002E0072006500740072006F00310031002E00640087
:20E1B00065002A036E00650078007900730033005F006A007400610067005F003200660057
:1EE1D000690066006F005F006900630012033000300030003000300030003000300033
:2005F800222222229001F4020E5DAF82AEB574FE5E441CF5B5EF13920392B4EFA2E1920317
:2006180092B3EFA2E4920392B222120602A2B0E433FF74024FF58222E5821392B2D2B413D6
:20063800C2B492B2D2B413C2B492B2D2B413C2B492B2D2B413C2B492B2D2B413C2B492B29C
:20065800D2B413C2B492B2D2B413C2B492B2D2B400C2B42222E582A2B01392B2D2B4C2B490
:20067800A2B01392B2D2B4C2B4A2B01392B2D2B4C2B4A2B01392B2D2B4C2B4A2B01392B2CA
:20069800D2B4C2B4A2B01392B2D2B4C2B4A2B01392B2D2B4C2B4A2B01392B2D2B400C2B457
:0406B800F582222283
:2006BC0090E6007412F090E60174A3F090E6707480F000000090E60274E0F000000090E6B8
:2006DC000374F9F000000090E6047480F000000090E60B7403F000000090E610E4F00000FE
:2006FC000090E61174A0F000000090E618E4F000000090E6047402F000000090E61274A273
:20071C00F000000090E61374A2F000000090E61474E0F000000090E6157402F000000090EF
:20073C00E6047404F000000090E6047406F000000090E6047408F000000090E604E4F00033
:20075C00000090E60BE4F000000090E6497484F000000090E6497484F000000090E619E467
:20077C00F000000090E6197410F000000090E6327480F000000090E6337404F0000000903D
:20079C00E61A740CF000000090E6247402F000000090E625E4F000000090E6347419F00037
:2007BC00000090E63574FCF000000090E61BE4F000000000000090E6917480F00000009032
:0907DC00E6917480F00000002297
:2007E50090E6A0E0FF74014FF022AF8274805FC423541FFE740F5F90E6834EF0E0FF7420C1
:200805004FF02290E680E0FF740A4FF09000FA120E5D90E65D74FFF090E65FF0AF9174EF3B
:0D0825005FF59190E680E0FF74F75FF02230
:060E8E00E478FFF6D8FD38
:060E750075120075130068
:2008320090E680E0FF30E7197514007515E17516127517E175181C7519E1751A66751BE125
:200852002275144A7515E175165C7517E17518667519E1751A1C751BE122C0E0C007C0D03B
:2008720075D000AF9174EF5FF59175A100D204D0D0D007D0E032C021C0E0C0F0C082C0839E
:20089200C007C006C005C004C003C002C001C000C0D075D000AF9174EF5FF59175A10012A5
:2008B2000832D0D0D000D001D002D003D004D005D006D007D083D082D0F0D0E0D02132C0B8
:2008D20021C0E0C0F0C082C083C007C006C005C004C003C002C001C000C0D075D000AF91DF
:2008F20074EF5FF59175A100120832D0D0D000D001D002D003D004D005D006D007D083D0DD
:2009120082D0F0D0E0D02132120832751C6C751D08758200120CDC751C88751D0875821022
:20093200120CDC751CD1751D08758214120CDC90E65C7431F022AF828F06747F5EFF24F7F0
:20095200500475820022BF010475820122530701E4BF000104F58222AF82BF010C90E6A18A
:20097200E0FE7D008E828D8322BF810C90E6A2E0FE7D008E828D83228F06747F5EFF700C66
:2009920090E6A0E0FE7D008E828D832290E6A3E0FE7D00EFC3137C002EFEEC3D8E82F58300
:2009B20022C20490E6B8E0FF5307608F06BE00028028BF2002800DBF4002800EBF600280DB
:2009D20003020C701207E5020C70120375E5826003020C701207E5020C7090E6B8E0FF535A
:2009F2000780BF80028003020B7490E6B9E0FFBF0003020AEBBF06028033BF08028008BFC8
:200A12000A028016020B6E90E740E512F090E68AE4F090E68B04F0020C7090E740E513F023
:200A320090E68AE4F090E68B04F0020C7090E6BBE0FFBF01028017BF02028038BF03028035
:200A520059BF0602801BBF0702803C020AE5AE14AF1590E6B3EFF07F0090E6B4EEF0020C31
:200A720070AE16AF1790E6B3EFF07F0090E6B4EEF0020C70AE18AF1990E6B3EFF07F0090B8
:200A9200E6B4EEF0020C70AE1AAF1B90E6B3EFF07F0090E6B4EEF0020C7090E6BAE0FF9010
:200AB200E186E0FEC3EF9E40061207E5020C7090E6BAE075F002A42487F58274E135F0F521
:200AD20083E0FEA3E090E6B3F07F0090E6B4EEF0020C701207E5020C7090E6B8E0FF53071F
:200AF2001F8F06BE0002800ABE0102801BBF0266802C90E740E4F090E741F090E68AF09004
:200B1200E68B7402F0020C7090E740E4F090E741F090E68AF090E68B7402F0020C7090E6F0
:200B3200BCE0F582120948E582602590E6BCE0F58212096AE0FF53070190E740EFF090E7EC
:200B520041E4F090E68AF090E68B7402F0020C701207E5020C701207E5020C701207E502A1
:200B72000C7090E6B9E0FF24F45003020C6DEF240A83F582EF241083F583E4736DB83516F7
:200B92006D6D6D6D6DA66DAF0C0B0C0C0C0C0C0C0C0B0C0B90E6BAE0F512020C7090E6BA0E
:200BB200E0F513020C7090E6B8E0FF53071F8F06BE00028005BF0247800A90E6BAE01207A2
:200BD200E5020C7090E6BAE0703090E6BCE0F582120948E582602390E6BCE0F58212096A0C
:200BF200AE82AF83E0FD5305FE8E828F83EDF090E6BCE0F5821207EF80641207E5805F12EB
:200C120007E5805A90E6B8E0FF53071FBF004F90E6BAE0FFBF01028005BF02028040120776
:200C3200E5803B90E6BAE0FF702C90E6BCE0F582120948E582601A90E6BCE0F58212096A7C
:200C5200AE82AF83E0FD4305018E828F83EDF0800D1207E580081207E580031207E590E6F3
:080C7200A0E0FF74804FF022A6
:200C7A00AF82BF03004005EF249C500122740F5FFEBE03028007740F5FFEBE0B44A2AF9206
:200C9A0005C2AFEF2400F582E43400F5837402F07E00142FFCE43EFDEC2400F582ED3400C0
:200CBA00F583E51DFDF074022FFFE43EFEEF2400F582EE3400F583AE1C7F00EEF0A205926B
:200CDA00AF22E582FF2483500122EF5403600122A2AF9206C2AFEF2400F582E43401F5836B
:200CFA007402F07E00142FFCE43EFDEC2400F582ED3401F583E51DF074022FFFE43EFEEFD2
:200D1A002400F582EE3401F583AE1CEEF0A20692AF22AF82BF80004005EF244B500122EF5B
:200D3A005403600122A2AF9207C2AFEF2480F582E43400F5837402F07E00142FFCE43EFD88
:200D5A00EC2480F582ED3400F583E51DF074022FFFE43EFEEF2480F582EE3400F583AE1CB5
:200D7A00EEF0A20792AF22C2E8C2EA751C00751D01758243120C7A751C80751D0075825336
:200D9A00120C7A00000090E650E4F000000090E652E4F000000090E654E4F000000090E657
:200DBA0056E4F000000090E65174FFF000000090E65374FFF000000090E65574FFF000006B
:200DDA000090E65774FFF000000090E658E4F090E65914F090E65AE4F090E65B14F090E665
:200DFA005CE4F090E65D14F090E65EE4F090E65F14F000000090E660E4F000000090E661D0
:200E1A0074FFF090E662E4F090E66314F090E665E4F090E668740BF0AF9174EF5FF591AF99
:0B0E3A009174BF5FF591D2E8D2EA226C
:200E450022AF82120E45EF14FEFF70F72290FB50A3E582458370F922AE82AF83120E52EE52
:100E650024FFFCEF34FFFD8C068D07EC4D70ED2261
:0D0E81007581211205D6E5826003020E7E08
:00000001FF
