:06000000020E0202006B7B
:03000B0002006B85
:0300130002006B7D
:03001B0002006B75
:0300230002006B6D
:03002B0002006B65
:0300330002006B5D
:03003B0002006B55
:0300430002006B4D
:03004B0002006B45
:0300530002006B3D
:03005B0002006B35
:0300630002006B2D
:01006B003262
:0900800002006B0002006B00029B
:08008900006B0002006B000295
:08009100006B0002006B00028D
:08009900006B0002006B000285
:0800A100006B0002006B00027D
:0800A900006B0002006B000275
:0700B100006B0002006B0070
:0901000002006B0002006B00021A
:08010900006B0002006B000214
:08011100006B0002006B00020C
:08011900006B0002006B000204
:08012100006B0002006B0002FC
:08012900006B0002006B0002F4
:08013100006B0002006B0002EC
:08013900006B0002006B0002E4
:08014100006B0002006B0002DC
:08014900006B0002006B0002D4
:08015100006B0002006B0002CC
:08015900006B0002006B0002C4
:08016100006B0002006B0002BC
:08016900006B0002006B0002B4
:08017100006B0002006B0002AC
:07017900006B0002006B00A7
:030E0800020E10C7
:030E2300020E0BB1
:050E0B001203F180FE5E
:06018000C200E4F508F5E1
:0401860009F50AD29B
:05018A0001750B00757A
:06018F000C001205FB123A
:0E01950005F875CB6375CAC0758E0075C80479
:0701A300D2AFD2B0D2B122AD
:0B01AA00AA82850C827583E0EAF00554
:0501B5000C0509E4B592
:0401BA000902050A27
:0101BE00221E
:0401BF0020000122F9
:0E01C3001205F790E6A2E0FA30E103020257BF
:0A01D100E509450A60687AC07BE783
:0E01DB008B9D7AC07BE77B008A9E90E67C7449
:0C01E90031F07460F0C3743E9509E49599
:0A01F5000A50107A3EE50924C2F515
:0601FF0009E50A34FFF5DA
:030205000A800765
:06020800AA09E4F509F566
:01020E000AE5
:0B020F008A037C007DE08D9A850B9B2C
:0E021A008A041AEC601090E67BE090E67CF01F
:080228007C007DE08D9A80EA64
:0C023000859B0B0090E68F74022BF0D22F
:03023C00CF801858
:0E023F0030CF1590E7C07431F090E7C17460C5
:0A024D00F00090E68F7402F0C2CFBB
:06025700E5AA30E00122DF
:0A025D00C3E50994C1E50A940040CE
:02026700012272
:0E02690090E690E0FB7A0090E691E0FC7D00CC
:0A027700EA4CF50DEB4DF50E7C008E
:0E0281007DF08D9A7C007DF08C9B7C007D00D2
:0A028F00C3EC950DED950E4003023F
:02029900036AF6
:07029B00E5087003020326D1
:0A02A200E50DC39CFEE50E9DFFA8CC
:0C02AC00087900C3E89EE99F5004880612
:0202B8008907B4
:0A02BA008E00E508C398F508EE2C4D
:0B02C400FCEF3DFD30012C8E008F018F
:0902CF008802890318B8FF011927
:0E02D800EA4B60B390E67BE0F582C004C005FF
:0E02E600C000C00112062DD001D000D005D0FE
:0302F4000480D8AB
:0402F7008E028F03E1
:0902FB008A068B071ABAFF011BE9
:0E030400EE4F608790E67BE0F582C002C003FA
:0E031200C004C00512066A1201AAD005D0046C
:06032000D003D00280D5DD
:0D03260090E67BE0FA23235401FBB40100B4
:0A0333009201EA30E707743F5AF523
:03033D0008802213
:0C03400030010F8A82C004C005120601C3
:06034C00D005D004801072
:0E0352008A82C004C00512061F1201AAD0053F
:02036000D004C7
:050362000CBC00010DC0
:0303670002028F00
:08036A000090E6917480F0227E
:0E03720090E6B8E0FA20E70C90E6B9E07002E1
:02038000D200A9
:04038200758201225D
:0E03860090E6B9E0FABA902B90E6BCE025E0D4
:0A039400547FFA2400F582E43418C7
:0C039E00F583E0FB90E740F0EA04240047
:0C03AA00F582E43418F583E0FA90E74196
:0303B600F0800CC8
:0C03B90090E7407436F090E7417483F048
:0D03C50090E68AE4F090E6BEE0FABA02008D
:0903D200500790E6BEE0FA80023B
:0203DB007A02A4
:0903DD0090E68BEAF07582012222
:0603E6003002031209655C
:0503EC001201BF80F5C5
:0903F100C2AF1201801206B9121C
:0603FA000450120D351243
:0804000008CFD2AF1207DE02A3
:0204080003E609
:0A040A00AA82E50F54FEFBB50F02B5
:0204140080293D
:0A0416008A048C05E46210ED621107
:0A042000EB2400F582E43418F583A4
:0A042A00E0FB7C006210EC6211E5BB
:060434001033C51133C5B1
:05043A001192E0F51035
:06043F00AB0F050FEB24DA
:0A04450000F582E43418F583EAF0B4
:01044F00228A
:07045000750F007510AA757D
:0C04570011AA75820012040A75820012BE
:04046300040A7A000D
:0C046700C3EA648094865017EA2408F56C
:0C04730082E434E1F583E0F582C002125F
:07047F00040AD0020A80E12B
:020486007A00FA
:0C048800C3EA648094825017EA2423F534
:0C04940082E434E1F583E0F582C002123E
:0704A000040AD0020A80E10A
:0E04A70075821C12040A75820012040A7A0083
:0C04B500C3EA648094825017EA2402F528
:0C04C10082E434E1F583E0F582C0021211
:0704CD00040AD0020A80E1DD
:0C04D4007486250FFAF582C00212040A9B
:0C04E00090E19EE0F58212040AD0029028
:0D04EC00E19EE02AFAF582C00212040A9097
:0B04F900E1BCE0F58212040AD0029082
:0A050400E1BCE02AF58212040A901F
:0A050E00E1E6E0F58212040A7A002B
:0E05180090E19EE0FBC3EA64808BF063F0800C
:0B05260095F05017EA249EF582E434A3
:0C053100E1F583E0F582C00212040AD05C
:04053D00020A80D757
:020541007A003E
:0E05430090E1BCE0FBC3EA64808BF063F080C3
:0B05510095F05017EA24BCF582E4345A
:0C055C00E1F583E0F582C00212040AD031
:04056800020A80D72C
:02056C007A0013
:0E056E0090E1E6E0FBC3EA64808BF063F0806E
:0B057C0095F05017EA24E6F582E43405
:0C058700E1F583E0F582C00212040AD006
:04059300020A80D701
:020597007A00E8
:0C059900C3EA648094845017EA240EF535
:0C05A50082E434E1F583E0F582C002122C
:0705B100040AD0020A80E1F8
:0C05B8007482250F400875820012040AAE
:0205C40080F2C3
:0805C600AA1090187EEAF0AAC9
:0705CE001190187FEAF022F2
:0805D5007880E84400600C7915
:0C05DD0001901800E4F0A3D8FCD9FAD07B
:0E05E90083D082F6D8FDC082C08375820022C6
:02E1000012010A
:06E10200000200000040D5
:06E10800C016EF03040045
:04E10E000102030106
:0AE112000A060002FFFFFF400100B3
:07E11C0009023500010100BA
:0EE1230080FA0904000005FFFFFF02070581D6
:0EE131000200020007050202000200070504BA
:0EE13F000200020007058602000200070588A4
:04E14D0002000200CA
:0EE152001201000200000040C016EF0304009E
:04E1600001020301B4
:0AE164000A060002FFFFFF40010061
:0EE16E000902200001010080FA0904000002ED
:0EE17C00FFFFFF0207058102400000070502B9
:04E18A00024000004F
:01E18E00048C
:02E18F0098E115
:02E191009EE10D
:02E19300BCE1ED
:02E19500E6E1C1
:06E198000603000009046B
:0EE19E001E037700770077002E0072006500E8
:0EE1AC00740072006F00310031002E0064001C
:02E1BA006500FE
:0EE1BC002A036E0065007800790073003300BE
:0EE1CA005F006A007400610067005F003300B0
:0EE1D8006600690066006F005F00690063006A
:0EE1E6001203300030003000300030003000F6
:04E1F40030003000C7
:0105F70022E1
:0105F80022E0
:0105F90022DF
:0105FA0022DE
:0605FB009001F4020DF175
:0E060100AA82ABB574FE5BF5F0741C45F0F5F3
:0E060F00B5EA1392B4EAA2E192B3EAA2E49231
:02061D00B22207
:0E061F00120601A2B0E433FA74024AF58222F8
:0E062D00E5821392B2D2B413C2B492B2D2B428
:0E063B0013C2B492B2D2B413C2B492B2D2B40B
:0E06490013C2B492B2D2B413C2B492B2D2B4FD
:0E06570013C2B492B2D2B413C2B492B2D2B4EF
:0506650000C2B42222D6
:0E066A00E582A2B01392B2D2B4C2B4A2B01311
:0E06780092B2D2B4C2B4A2B01392B2D2B4C243
:0E068600B4A2B01392B2D2B4C2B4A2B0139216
:0E069400B2D2B4C2B4A2B01392B2D2B4C2B405
:0E06A200A2B01392B2D2B4C2B4A2B01392B2FC
:0906B000D2B400C2B4F58222228A
:0D06B90090E6007412F090E60174A3F0903A
:0E06C600E6707480F00090E60274E0F00090A0
:0E06D400E60374F9F00090E6047480F00090E4
:0D06E200E60B7403F00090E610E4F00090C9
:0D06EF00E61174A0F00090E618E4F0009011
:0E06FC00E6047402F00090E61274A2F0009082
:0E070A00E61374A2F00090E61474E2F0009082
:0E071800E61574E2F00090E6047404F0009020
:0E072600E6047406F00090E6047408F00090FB
:0E073400E604E4F00090E60BE4F00090E649E5
:0E0742007484F00090E6497484F00090E6198B
:0E075000E4F00090E6197410F00090E63274A8
:0E075E0080F00090E6337404F00090E61A7408
:0E076C000CF00090E6247402F00090E625E404
:0E077A00F00090E6347409F00090E63574FC4F
:0E078800F00090E61B740CF00090E626740260
:0E079600F00090E627E4F00090E6367441F0A3
:0E07A4000090E63774FCF0000090E69174803F
:0A07B200F00090E6917480F0002240
:0807BC0090E6A0E04401F022E8
:0E07C400AA8274805AC423541FFB740F5A90EB
:0C07D200E6834BF090E683E04420F02228
:0E07DE0090E680E0440AF09000FA120DF190CF
:0E07EC00E65D74FFF090E65F74FFF05391EF4E
:0807FA0090E680E054F7F022C4
:060E1D00E478FFF6D8FDA9
:060E0200751200751300DB
:0A08020090E680E0FA30E719751463
:03080C000075155F
:03080F00E175167A
:0308120012751745
:03081500E1751872
:030818001C751933
:03081B00E1751A6A
:03081E006E751BD9
:02082100E122D2
:040823007514527581
:0308270015E17563
:03082A00166475DC
:03082D0017E1755B
:03083000186E75CA
:0308330019E17553
:030836001A1C7514
:030839001BE1229E
:09083C005391EF75A100D20232C4
:0C084500C021C0E0C0F0C082C083C0022F
:0E085100C003C004C005C006C007C000C0013F
:0E085F00C0D075D0005391EF75A100120802B1
:0E086D00D0D0D001D000D007D006D005D004E6
:0D087B00D003D002D083D082D0F0D0E0D0E6
:0208880021321B
:0C088A00C021C0E0C0F0C082C083C002EA
:0E089600C003C004C005C006C007C000C001FA
:0E08A400C0D075D0005391EF75A1001208026C
:0E08B200D0D0D001D000D007D006D005D004A1
:0D08C000D003D002D083D082D0F0D0E0D0A1
:0208CD002132D6
:0508CF00120802751C77
:0308D4003C751D53
:0808D70008758200120C8E75F9
:0308DF001C457540
:0608E2001D0875821012D2
:0408E8000C8E751CE1
:0308EC008A751DED
:0C08EF0008758214120C8E90E65C7431C7
:0208FB00F022E9
:0D08FD00E582547FFA24F750047582002232
:07090A00BA0104758201220D
:08091100530201E4BA000104E5
:03091900F5822242
:0E091C00AA82BA010C90E6A1E0FB7C008B825F
:03092A008C832299
:0E092D00BA810C90E6A2E0FB7C008B828C83EA
:01093B002299
:0E093C0053027FEA700C90E6A0E0FB7C008B7B
:04094A00828C8322F6
:0E094E0090E6A3E0FB7C00EAC313FA7D00EA0A
:09095C002BFBED3C8B82F583229C
:0C096500C20290E6B8E0FA530260BA004B
:03097100028028D9
:05097400BA2002800D15
:05097900BA4002800EEF
:05097E00BA60028003D5
:03098300020C2340
:060986001207BC020C2365
:0A098C00120372E5826003020C23DF
:060996001207BC020C2355
:0D099C0090E6B8E0FA530280BA80028003B2
:0309A900020B241A
:0B09AC0090E6B9E0FABA0003020A9DD1
:0509B700BA06028035C4
:0509BC00BA08028008EA
:0509C100BA0A028017D4
:0309C600020B1E03
:0C09C90090E740E512F090E68AE4F09020
:0809D500E68B7401F0020C2313
:0C09DD0090E740E513F090E68AE4F0900B
:0809E900E68B7401F0020C23FF
:0A09F10090E6BBE0FABA010280179D
:0509FB00BA0202803881
:050A0000BA0302805959
:050A0500BA0602801B8F
:050A0A00BA0702803C68
:030A0F00020A9741
:0A0A1200AA14AB1590E6B3EBF07BDD
:090A1C000090E6B4EAF0020C239C
:0A0A2500AA16AB1790E6B3EBF07BC6
:090A2F000090E6B4EAF0020C2389
:0A0A3800AA18AB1990E6B3EBF07BAF
:090A42000090E6B4EAF0020C2376
:0A0A4B00AA1AAB1B90E6B3EBF07B98
:090A55000090E6B4EAF0020C2363
:0E0A5E0090E6BAE0FA90E18EE0FBC3EA9B401E
:070A6C00061207BC020C2377
:0C0A730090E6BAE075F002A4248FF58232
:0B0A7F0074E135F0F583E0FAA3E0908D
:0D0A8A00E6B3F07B0090E6B4EAF0020C2326
:060A97001207BC020C2353
:0D0A9D0090E6B8E0FA53021FBA0002800A8A
:050AAA00BA0102801BEF
:050AAF00BA0266802C74
:0E0AB40090E740E4F090E741F090E68AF09081
:080AC200E68B7402F0020C2324
:0E0ACA0090E740E4F090E741F090E68AF0906B
:080AD800E68B7402F0020C230E
:0E0AE00090E6BCE0F5821208FDE582602590EC
:0E0AEE00E6BCE0F58212091CE0FA530201900A
:0E0AFC00E740EAF090E741E4F090E68AF090DF
:080B0A00E68B7402F0020C23DB
:060B12001207BC020C23D7
:060B18001207BC020C23D1
:060B1E001207BC020C23CB
:0C0B240090E6B9E0FA24F45003020C2023
:070B3000EA2A2A900B37733B
:070B3700020C20020B6D020D
:060B3E000BE8020BC902E6
:060B44000C20020C20024F
:060B4A000C20020C200249
:060B50000C20020B5B0209
:050B56000C20020B64FD
:090B5B0090E6BAE0F512020C2349
:090B640090E6BAE0F513020C233F
:0D0B6D0090E6B8E0FA53021FBA00028005BE
:050B7A00BA0247800AE9
:0A0B7F0090E6BAE01207BC020C2356
:0D0B890090E6BAE0703090E6BCE0F5821214
:0D0B960008FDE582602390E6BCE0F58212C8
:0E0BA300091CAA82AB83E0FC5304FE8A828BFD
:0E0BB10083ECF090E6BCE0F5821207C480648D
:050BBF001207BC805F7D
:050BC4001207BC805A7D
:0E0BC90090E6B8E0FA53021FBA004F90E6BA69
:070BD700E0FABA01028005FB
:050BDE00BA0202804094
:050BE3001207BC803B7D
:0E0BE80090E6BAE0FA702C90E6BCE0F58212BE
:0D0BF60008FDE582601A90E6BCE0F5821271
:0E0C0300091CAA82AB83E0FC4304018A828BA9
:050C110083ECF0800DF2
:050C16001207BC80087C
:050C1B001207BC80037C
:030C20001207BCFC
:080C230090E6A0E04480F022FD
:050C2B00AA82BA0300DB
:070C30004005EA249C50017D
:010C3700229A
:090C3800740F5AFBBB0302800794
:070C4100740F5AFBBB0B45C9
:0A0C4800A2AF9203C2AFEA2400F548
:0C0C520082E43400F5837402F07B00742F
:0C0C5E00012AFCE43BFDEC2400F582EDD3
:0A0C6A003400F583E51DFCF0740270
:0C0C74002AFAE43BFBEA2400F582EB3492
:0A0C800000F583AA1C7B00EAF0A235
:030C8A000392AF23
:010C8D002244
:080C8E00E582FA2483500122E3
:060C9600EA540360012294
:0A0C9C00A2AF9204C2AFEA2400F5F3
:0C0CA60082E43401F5837402F07B0074DA
:0C0CB200012AFCE43BFDEC2400F582ED7F
:0A0CBE003401F583E51DF074022AED
:0B0CC800FAE43BFBEA2400F582EB3469
:080CD30001F583AA1CEAF0A25E
:040CDB000492AF22AE
:050CDF00AA82BA8000AA
:070CE4004005EA244B50011A
:010CEB0022E6
:060CEC00EA54036001223E
:0A0CF200A2AF9205C2AFEA2480F51C
:0C0CFC0082E43400F5837402F07B007485
:0C0D0800012AFCE43BFDEC2480F582EDA8
:0A0D14003400F583E51DF074022A97
:0B0D1E00FAE43BFBEA2480F582EB3492
:080D290000F583AA1CEAF0A208
:040D31000592AF2256
:080D3500C2E8C2EA751C00755A
:060D3D001D017582431246
:040D43000C2B751CE4
:030D470080751D97
:0C0D4A0000758253120C2B0090E650E460
:0E0D5600F00090E652E4F00090E654E4F00065
:0E0D640090E656E4F00090E65174FFF0009027
:0E0D7200E65374FFF00090E65574FFF0009019
:0E0D8000E65774FFF00090E658E4F090E65954
:0E0D8E0074FFF090E65AE4F090E65B74FFF01C
:0E0D9C0090E65CE4F090E65D74FFF090E65E99
:0E0DAA00E4F090E65F74FFF00090E660E4F085
:0D0DB8000090E66174FFF090E662E4F090B8
:0E0DC500E66374FFF090E665E4F090E6687473
:0A0DD3000BF05391AFD2E8D2EA22F0
:010DDD0022F3
:020DDE00AA82E7
:060DE000120DDDDAFB221A
:030DE60090FB502F
:080DE900A3E582458370F922A5
:040DF100AA82AB83A4
:080DF500120DE61ABAFF011B02
:050DFD00EA4B70F42236
:030E1000758121C8
:0A0E13001205D5E5826003020E0B04
:00000001FF
