:06000000020DA702006BD7
:03000B0002006B85
:0300130002006B7D
:03001B0002006B75
:0300230002006B6D
:03002B0002006B65
:0300330002006B5D
:03003B0002006B55
:0300430002006B4D
:03004B0002006B45
:0300530002006B3D
:03005B0002006B35
:0300630002006B2D
:01006B003262
:0900800002006B0002006B00029B
:08008900006B0002006B000295
:08009100006B0002006B00028D
:08009900006B0002006B000285
:0800A100006B0002006B00027D
:0800A900006B0002006B000275
:0700B100006B0002006B0070
:0901000002006B0002006B00021A
:08010900006B0002006B000214
:08011100006B0002006B00020C
:08011900006B0002006B000204
:08012100006B0002006B0002FC
:08012900006B0002006B0002F4
:08013100006B0002006B0002EC
:08013900006B0002006B0002E4
:08014100006B0002006B0002DC
:08014900006B0002006B0002D4
:08015100006B0002006B0002CC
:08015900006B0002006B0002C4
:08016100006B0002006B0002BC
:08016900006B0002006B0002B4
:08017100006B0002006B0002AC
:07017900006B0002006B00A7
:030DAD00020DB57F
:030DC800020DB069
:050DB0001203F180FEBA
:06018000C200E4F508F5E1
:0401860009F50AD29B
:05018A0001750B00757A
:06018F000C001205FB123A
:0E01950005F875CB6375CAC0758E0075C80479
:0701A300D2AFD2B0D2B122AD
:0B01AA00AA82850C827583E0EAF00554
:0501B5000C0509E4B592
:0401BA000902050A27
:0101BE00221E
:0401BF0020000122F9
:0E01C3001205F790E6A2E0FA30E103020257BF
:0A01D100E509450A60687AC07BE783
:0E01DB008B9D7AC07BE77B008A9E90E67C7449
:0C01E90031F07460F0C3743E9509E49599
:0A01F5000A50107A3EE50924C2F515
:0601FF0009E50A34FFF5DA
:030205000A800765
:06020800AA09E4F509F566
:01020E000AE5
:0B020F008A037C007DE08D9A850B9B2C
:0E021A008A041AEC601090E67BE090E67CF01F
:080228007C007DE08D9A80EA64
:0C023000859B0B0090E68F74022BF0D22F
:03023C00CF801858
:0E023F0030CF1590E7C07431F090E7C17460C5
:0A024D00F00090E68F7402F0C2CFBB
:06025700E5AA30E00122DF
:0A025D00C3E50994C1E50A940040CE
:02026700012272
:0E02690090E690E0FB7A0090E691E0FC7D00CC
:0A027700EA4CF50DEB4DF50E7C008E
:0E0281007DF08D9A7C007DF08C9B7C007D00D2
:0A028F00C3EC950DED950E4003023F
:02029900036AF6
:07029B00E5087003020326D1
:0A02A200E50DC39CFEE50E9DFFA8CC
:0C02AC00087900C3E89EE99F5004880612
:0202B8008907B4
:0A02BA008E00E508C398F508EE2C4D
:0B02C400FCEF3DFD30012C8E008F018F
:0902CF008802890318B8FF011927
:0E02D800EA4B60B390E67BE0F582C004C005FF
:0E02E600C000C00112062DD001D000D005D0FE
:0302F4000480D8AB
:0402F7008E028F03E1
:0902FB008A068B071ABAFF011BE9
:0E030400EE4F608790E67BE0F582C002C003FA
:0E031200C004C00512066A1201AAD005D0046C
:06032000D003D00280D5DD
:0D03260090E67BE0FA23235401FBB40100B4
:0A0333009201EA30E707743F5AF523
:03033D0008802213
:0C03400030010F8A82C004C005120601C3
:06034C00D005D004801072
:0E0352008A82C004C00512061F1201AAD0053F
:02036000D004C7
:050362000CBC00010DC0
:0303670002028F00
:08036A000090E6917480F0227E
:0E03720090E6B8E0FA20E70C90E6B9E07002E1
:02038000D200A9
:04038200758201225D
:0E03860090E6B9E0FABA902B90E6BCE025E0D4
:0A039400547FFA2400F582E43418C7
:0C039E00F583E0FB90E740F0EA04240047
:0C03AA00F582E43418F583E0FA90E74196
:0303B600F0800CC8
:0C03B90090E7407436F090E7417483F048
:0D03C50090E68AE4F090E6BEE0FABA02008D
:0903D200500790E6BEE0FA80023B
:0203DB007A02A4
:0903DD0090E68BEAF07582012222
:0603E60030020312090AB7
:0503EC001201BF80F5C5
:0903F100C2AF1201801206B9121C
:0603FA000450120CDA129F
:080400000874D2AF1207830259
:0204080003E609
:0A040A00AA82E50F54FEFBB50F02B5
:0204140080293D
:0A0416008A048C05E46210ED621107
:0A042000EB2400F582E43418F583A4
:0A042A00E0FB7C006210EC6211E5BB
:060434001033C51133C5B1
:05043A001192E0F51035
:06043F00AB0F050FEB24DA
:0A04450000F582E43418F583EAF0B4
:01044F00228A
:07045000750F007510AA757D
:0C04570011AA75820012040A75820012BE
:04046300040A7A000D
:0C046700C3EA648094865017EA2408F56C
:0C04730082E434E1F583E0F582C002125F
:07047F00040AD0020A80E12B
:020486007A00FA
:0C048800C3EA648094825017EA2423F534
:0C04940082E434E1F583E0F582C002123E
:0704A000040AD0020A80E10A
:0E04A70075821C12040A75820012040A7A0083
:0C04B500C3EA648094825017EA2402F528
:0C04C10082E434E1F583E0F582C0021211
:0704CD00040AD0020A80E1DD
:0C04D4007486250FFAF582C00212040A9B
:0C04E00090E188E0F58212040AD002903E
:0D04EC00E188E02AFAF582C00212040A90AD
:0B04F900E1A6E0F58212040AD0029098
:0A050400E1A6E02AF58212040A9035
:0A050E00E1BEE0F58212040A7A0053
:0E05180090E188E0FBC3EA64808BF063F08022
:0B05260095F05017EA2488F582E434B9
:0C053100E1F583E0F582C00212040AD05C
:04053D00020A80D757
:020541007A003E
:0E05430090E1A6E0FBC3EA64808BF063F080D9
:0B05510095F05017EA24A6F582E43470
:0C055C00E1F583E0F582C00212040AD031
:04056800020A80D72C
:02056C007A0013
:0E056E0090E1BEE0FBC3EA64808BF063F08096
:0B057C0095F05017EA24BEF582E4342D
:0C058700E1F583E0F582C00212040AD006
:04059300020A80D701
:020597007A00E8
:0C059900C3EA648094845017EA240EF535
:0C05A50082E434E1F583E0F582C002122C
:0705B100040AD0020A80E1F8
:0C05B8007482250F400875820012040AAE
:0205C40080F2C3
:0805C600AA1090187EEAF0AAC9
:0705CE001190187FEAF022F2
:0805D5007880E84400600C7915
:0C05DD0001901800E4F0A3D8FCD9FAD07B
:0E05E90083D082F6D8FDC082C08375820022C6
:02E1000012010A
:06E10200000200000040D5
:06E10800C016EF03040045
:04E10E000102030106
:0AE112000A060002FFFFFF400100B3
:07E11C0009022000010100CF
:0EE1230080FA0904000002FFFFFF02070581D9
:0BE131000200020007050202000200CD
:0EE13C001201000200000040C016EF030400B4
:04E14A0001020301CA
:0AE14E000A060002FFFFFF40010077
:0EE158000902200001010080FA090400000203
:0EE16600FFFFFF0207058102400000070502CF
:04E174000240000065
:01E1780004A2
:02E1790082E141
:02E17B0088E139
:02E17D00A6E119
:02E17F00BEE1FF
:06E1820006030000090481
:0EE188001E037700770077002E0072006500FE
:0EE19600740072006F00310031002E00640032
:02E1A400650014
:0EE1A60018036E0065007800790073003300E6
:0AE1B4005F006A007400610067005C
:0EE1BE0012033000300030003000300030001E
:04E1CC0030003000EF
:0105F70022E1
:0105F80022E0
:0105F90022DF
:0105FA0022DE
:0605FB009001F4020D96D0
:0E060100AA82ABB574FE5BF5F0741C45F0F5F3
:0E060F00B5EA1392B4EAA2E192B3EAA2E49231
:02061D00B22207
:0E061F00120601A2B0E433FA74024AF58222F8
:0E062D00E5821392B2D2B413C2B492B2D2B428
:0E063B0013C2B492B2D2B413C2B492B2D2B40B
:0E06490013C2B492B2D2B413C2B492B2D2B4FD
:0E06570013C2B492B2D2B413C2B492B2D2B4EF
:0506650000C2B42222D6
:0E066A00E582A2B01392B2D2B4C2B4A2B01311
:0E06780092B2D2B4C2B4A2B01392B2D2B4C243
:0E068600B4A2B01392B2D2B4C2B4A2B0139216
:0E069400B2D2B4C2B4A2B01392B2D2B4C2B405
:0E06A200A2B01392B2D2B4C2B4A2B01392B2FC
:0906B000D2B400C2B4F58222228A
:0D06B90090E6007412F090E60174ABF09032
:0E06C600E6707480F00090E60274E0F00090A0
:0E06D400E60374F9F00090E6047480F00090E4
:0D06E200E60B7403F00090E610E4F00090C9
:0D06EF00E61174A0F00090E618E4F0009011
:0E06FC00E6047402F00090E61274A2F0009082
:0E070A00E6137402F00090E6147402F0009002
:0E071800E6157402F00090E6047404F0009000
:0E072600E6047406F00090E6047408F00090FB
:0E073400E604E4F00090E619E4F00090E61A06
:0E074200E4F00090E61BE4F00090E60BE4F01B
:0E075000000090E6917480F00090E6917480B5
:03075E00F0002286
:0807610090E6A0E04401F02243
:0E076900AA8274805AC423541FFB740F5A9046
:0C077700E6834BF090E683E04420F02283
:0E07830090E680E0440AF09000FA120D969085
:0E079100E65D74FFF090E65F74FFF05391EFA9
:08079F0090E680E054F7F0221F
:060DC200E478FFF6D8FD05
:060DA70075120075130037
:0A07A70090E680E0FA30E7197514BF
:0307B100007515BB
:0307B400E17516D6
:0307B700127517A1
:0307BA00E17518CE
:0307BD001C75198F
:0307C000E1751AC6
:0307C30058751B4B
:0207C600E1222E
:0407C80075143C75F3
:0307CC0015E175BF
:0307CF00164E754E
:0307D20017E175B7
:0307D5001858753C
:0307D80019E175AF
:0307DB001A1C7570
:0307DE001BE122FA
:0907E1005391EF75A100D2023220
:0C07EA00C021C0E0C0F0C082C083C0028B
:0E07F600C003C004C005C006C007C000C0019B
:0E080400C0D075D0005391EF75A1001207A768
:0E081200D0D0D001D000D007D006D005D00441
:0D082000D003D002D083D082D0F0D0E0D041
:02082D00213276
:0C082F00C021C0E0C0F0C082C083C00245
:0E083B00C003C004C005C006C007C000C00155
:0E084900C0D075D0005391EF75A1001207A723
:0E085700D0D0D001D000D007D006D005D004FC
:0D086500D003D002D083D082D0F0D0E0D0FC
:02087200213231
:050874001207A7751C2E
:03087900E1751D09
:08087C0007758200120C3375B0
:030884001CEA75F6
:060887001D07758210122E
:04088D000C33751C97
:030891002F751DA3
:0C08940008758214120C3390E65C74317D
:0208A000F02244
:0D08A200E582547FFA24F75004758200228D
:0708AF00BA01047582012269
:0808B600530201E4BA00010441
:0308BE00F582229E
:0E08C100AA82BA010C90E6A1E0FB7C008B82BB
:0308CF008C8322F5
:0E08D200BA810C90E6A2E0FB7C008B828C8346
:0108E00022F5
:0E08E10053027FEA700C90E6A0E0FB7C008BD7
:0408EF00828C832252
:0E08F30090E6A3E0FB7C00EAC313FA7D00EA66
:090901002BFBED3C8B82F58322F7
:0C090A00C20290E6B8E0FA530260BA00A6
:0309160002802834
:05091900BA2002800D70
:05091E00BA4002800E4A
:05092300BA6002800330
:03092800020BC8F7
:06092B00120761020BC877
:0A093100120372E5826003020BC896
:06093B00120761020BC867
:0D09410090E6B8E0FA530280BA800280030D
:03094E00020AC9D1
:0B09510090E6B9E0FABA0003020A4287
:05095C00BA060280351F
:05096100BA0802800845
:05096600BA0A0280172F
:03096B00020AC3BA
:0C096E0090E740E512F090E68AE4F0907B
:08097A00E68B7401F0020BC8CA
:0C09820090E740E513F090E68AE4F09066
:08098E00E68B7401F0020BC8B6
:0A09960090E6BBE0FABA01028017F8
:0509A000BA02028038DC
:0509A500BA03028059B5
:0509AA00BA0602801BEB
:0509AF00BA0702803CC4
:0309B400020A3CF8
:0A09B700AA14AB1590E6B3EBF07B39
:0909C1000090E6B4EAF0020BC854
:0A09CA00AA16AB1790E6B3EBF07B22
:0909D4000090E6B4EAF0020BC841
:0A09DD00AA18AB1990E6B3EBF07B0B
:0909E7000090E6B4EAF0020BC82E
:0A09F000AA1AAB1B90E6B3EBF07BF4
:0909FA000090E6B4EAF0020BC81B
:0E0A030090E6BAE0FA90E178E0FBC3EA9B408F
:070A110006120761020BC889
:0C0A180090E6BAE075F002A42479F582A3
:0B0A240074E135F0F583E0FAA3E090E8
:0D0A2F00E6B3F07B0090E6B4EAF0020BC8DD
:060A3C00120761020BC865
:0D0A420090E6B8E0FA53021FBA0002800AE5
:050A4F00BA0102801B4A
:050A5400BA0266802CCF
:0E0A590090E740E4F090E741F090E68AF090DC
:080A6700E68B7402F0020BC8DB
:0E0A6F0090E740E4F090E741F090E68AF090C6
:080A7D00E68B7402F0020BC8C5
:0E0A850090E6BCE0F5821208A2E582602590A2
:0E0A9300E6BCE0F5821208C1E0FA53020190C1
:0E0AA100E740EAF090E741E4F090E68AF0903A
:080AAF00E68B7402F0020BC893
:060AB700120761020BC8EA
:060ABD00120761020BC8E4
:060AC300120761020BC8DE
:0C0AC90090E6B9E0FA24F45003020BC5DB
:070AD500EA2A2A900ADC73F3
:070ADC00020BC5020B120220
:060AE3000B8D020B6E02F8
:060AE9000BC5020BC50263
:060AEF000BC5020BC5025D
:060AF5000BC5020B00021C
:050AFB000BC5020B0910
:090B000090E6BAE0F512020BC800
:090B090090E6BAE0F513020BC8F6
:0D0B120090E6B8E0FA53021FBA0002800519
:050B1F00BA0247800A44
:0A0B240090E6BAE0120761020BC868
:0D0B2E0090E6BAE0703090E6BCE0F582126F
:0D0B3B0008A2E582602390E6BCE0F582127E
:0E0B480008C1AA82AB83E0FC5304FE8A828BB4
:0E0B560083ECF090E6BCE0F582120769806443
:050B6400120761805F33
:050B6900120761805A33
:0E0B6E0090E6B8E0FA53021FBA004F90E6BAC4
:070B7C00E0FABA0102800556
:050B8300BA02028040EF
:050B8800120761803B33
:0E0B8D0090E6BAE0FA702C90E6BCE0F5821219
:0D0B9B0008A2E582601A90E6BCE0F5821227
:0E0BA80008C1AA82AB83E0FC4304018A828B61
:050BB60083ECF0800D4E
:050BBB00120761800833
:050BC000120761800333
:030BC500120761B3
:080BC80090E6A0E04480F02259
:050BD000AA82BA030037
:070BD5004005EA249C5001D9
:010BDC0022F6
:090BDD00740F5AFBBB03028007F0
:070BE600740F5AFBBB0B4525
:0A0BED00A2AF9203C2AFEA2400F5A4
:0C0BF70082E43400F5837402F07B00748B
:0C0C0300012AFCE43BFDEC2400F582ED2E
:0A0C0F003400F583E51DFCF07402CB
:0C0C19002AFAE43BFBEA2400F582EB34ED
:0A0C250000F583AA1C7B00EAF0A290
:030C2F000392AF7E
:010C3200229F
:080C3300E582FA24835001223E
:060C3B00EA5403600122EF
:0A0C4100A2AF9204C2AFEA2400F54E
:0C0C4B0082E43401F5837402F07B007435
:0C0C5700012AFCE43BFDEC2400F582EDDA
:0A0C63003401F583E51DF074022A48
:0B0C6D00FAE43BFBEA2400F582EB34C4
:080C780001F583AA1CEAF0A2B9
:040C80000492AF2209
:050C8400AA82BA800005
:070C89004005EA244B500175
:010C90002241
:060C9100EA540360012299
:0A0C9700A2AF9205C2AFEA2480F577
:0C0CA10082E43400F5837402F07B0074E0
:0C0CAD00012AFCE43BFDEC2480F582ED04
:0A0CB9003400F583E51DF074022AF3
:0B0CC300FAE43BFBEA2480F582EB34EE
:080CCE0000F583AA1CEAF0A264
:040CD6000592AF22B2
:080CDA00C2E8C2EA751C0075B6
:060CE2001D0175824312A2
:040CE8000BD0751C9C
:030CEC0080751DF3
:0C0CEF0000758253120BD00090E650E418
:0E0CFB00F00090E652E4F00090E654E4F000C1
:0E0D090090E656E4F00090E65174FFF0009082
:0E0D1700E65374FFF00090E65574FFF0009074
:0E0D2500E65774FFF00090E658E4F090E659AF
:0E0D330074FFF090E65AE4F090E65B74FFF077
:0E0D410090E65CE4F090E65D74FFF090E65EF4
:0E0D4F00E4F090E65F74FFF00090E660E4F0E0
:0D0D5D000090E66174FFF090E662E4F09013
:0E0D6A00E66374FFF090E665E4F090E66874CE
:0A0D78000BF05391AFD2E8D2EA224B
:010D8200224E
:020D8300AA8242
:060D8500120D82DAFB22D0
:030D8B0090FB508A
:080D8E00A3E582458370F92200
:040D9600AA82AB83FF
:080D9A00120D8B1ABAFF011BB8
:050DA200EA4B70F42291
:030DB50075812124
:0A0DB8001205D5E5826003020DB0BC
:00000001FF
