:06000000020E2402006B59
:03000B0002006B85
:0300130002006B7D
:03001B0002006B75
:0300230002006B6D
:03002B0002006B65
:0300330002006B5D
:03003B0002006B55
:0300430002006B4D
:03004B0002006B45
:0300530002006B3D
:03005B0002006B35
:0300630002006B2D
:01006B003262
:2000800002006B0002006B0002006B0002006B0002006B0002006B0002006B0002006B00F8
:1800A00002006B0002006B0002006B0002006B0002006B0002006B00BA
:2001000002006B0002006B0002006B0002006B0002006B0002006B0002006B0002006B0077
:2001200002006B0002006B0002006B0002006B0002006B0002006B0002006B0002006B0057
:2001400002006B0002006B0002006B0002006B0002006B0002006B0002006B0002006B0037
:2001600002006B0002006B0002006B0002006B0002006B0002006B0002006B0002006B0017
:030E2A00020E3085
:030E4300020E2D6F
:030E2D000203F4C9
:20018000C200E4F508F509F50AD201750B00750C001205FC1205F975CB6375CAC0758E0023
:2001A00075C804D2AFD2B0D2B122AF82850C827583E0EFF0050C0509E4B50902050A222047
:2001C0000001221205F890E6A2E0FF30E10302025BE509450A606A7EC07FE78F9D7EC07FEF
:2001E000E77F008E9E90E67C7431F07460F0C3743E9509E4950A50107F3EE50924C2F5099D
:20020000E50A34FFF50A8007AF09E4F509F50A8F067C007DE08D9A850B9B8F051FED6010CD
:2002200090E67BE090E67CF07C007DE08D9A80EA859B0B00000090E68F74022EF0D2CF80BC
:200240001A30CF1790E7C07431F090E7C17460F000000090E68F7402F0C2CFE5AA30E0010A
:2002600022C3E50994C1E50A940040012290E690E0FE7F0090E691E0FD7C00EF4DF50DEE81
:200280004CF50E7C007DF08D9A7C007DF08C9B7C007D00C3EC950DED950E400302036BE57D
:2002A00008700302032AE50DC39CFAE50E9DFBA8087900C3E89AE99B5004880289038A01D7
:2002C000E508C399F508EA2CFCEB3DFD30012C8A008B018806890718B8FF0119EE4F60B3D7
:2002E00090E67BE0F582C005C004C001C000120630D000D001D004D00580D88A068B078E12
:20030000028F031EBEFF011FEA4B608790E67BE0F582C007C006C005C00412066D1201AA92
:20032000D004D005D006D00780D590E67BE0FFA2E69202B39201EF30E707743F5FF5088044
:200340002230010F8F82C005C004120602D004D00580108F82C005C0041206221201AAD0ED
:2003600004D0050CBC00010D02029300000090E6917480F02290E6B8E0FF20E70C90E6B9DB
:20038000E07002D2007582012290E6B9E0FFBF902B90E6BCE025E0547FFF2400F582E434FB
:2003A00018F583E0FE90E740F0EF042400F582E43418F583E0FF90E741F0800C90E74074B4
:2003C00036F090E7417483F090E68AE4F090E6BEE0FFBF0200500790E6BEE0FF80027F0243
:2003E00090E68BEFF0758201223004031209621201BF80F5C2AF90E609E4F0120180120699
:12040000BC120459120D301208C9D2AF1207B70203E94E
:20041200AF82E50F54FEFEB50F02802A8F048C05E4FC6210ED6211EE2400F582E43418F561
:2004320083E0FE7D006210ED6211E51033C51133C51192E0F510AE0F050FEE2400F582E43E
:200452003418F583EFF022750F007510AA7511AA7582001204127582001204127F00EF2412
:2004720008F582E434E1F583E0F582C007120412D0070FC3EF6480948640E37F00EF2423C6
:20049200F582E434E1F583E0F582C007120412D0070FC3EF6480948240E375821C1204122C
:2004B2007582001204127F00EF2402F582E434E1F583E0F582C007120412D0070FC3EF644D
:2004D20080948240E37486250FFFF582C00712041290E186E0F582120412D00790E186E09A
:2004F2002FFFF582C00712041290E1A4E0F582120412D00790E1A4E02FF58212041290E1B7
:20051200BCE0F5821204127F0090E186E0FEC3EF64808EF063F08095F05017EF2486F58257
:20053200E434E1F583E0F582C007120412D0070F80D77F0090E1A4E0FEC3EF64808EF063CC
:20055200F08095F05017EF24A4F582E434E1F583E0F582C007120412D0070F80D77F0090FC
:20057200E1BCE0FEC3EF64808EF063F08095F05017EF24BCF582E434E1F583E0F582C00746
:20059200120412D0070F80D77F00EF240EF582E434E1F583E0F582C007120412D0070FC36D
:2005B200EF6480948440E37482250F400875820012041280F2AE1090187EEEF0AF119018EE
:2005D2007FEFF0227880E84400600C7901901800E4F0A3D8FCD9FAD083D082F6D8FDC08207
:0605F200C08375820022A7
:20E100001201000200000040C016EF030400010203010A060002FFFFFF400100090220005C
:20E1200001010080FA0904000002FFFFFF020705810200020007050202000200120100029D
:20E1400000000040C016EF030400010203010A060002FFFFFF4001000902200001010080AF
:20E16000FA0904000002FFFFFF0207058102400000070502024000000482E186E1A4E1BC69
:01E18000E1BD
:20E18200040309041E037700770077002E0072006500740072006F00310031002E00640095
:20E1A200650018036E00650078007900730033005F006A00740061006700120330003000F9
:0CE1C20030003000300030003000300031
:2005F800222222229001F4020E0CAF82AEB574FE5E441CF5B5EF13920392B4EFA2E1920368
:2006180092B3EFA2E4920392B222120602A2B0E433FF74024FF58222E5821392B2D2B413D6
:20063800C2B492B2D2B413C2B492B2D2B413C2B492B2D2B413C2B492B2D2B413C2B492B29C
:20065800D2B413C2B492B2D2B413C2B492B2D2B400C2B42222E582A2B01392B2D2B4C2B490
:20067800A2B01392B2D2B4C2B4A2B01392B2D2B4C2B4A2B01392B2D2B4C2B4A2B01392B2CA
:20069800D2B4C2B4A2B01392B2D2B4C2B4A2B01392B2D2B4C2B4A2B01392B2D2B400C2B457
:0406B800F582222283
:2006BC0090E6007412F090E60174ABF090E6707480F000000090E60274E0F000000090E6B0
:2006DC000374F9F000000090E6047480F000000090E60B7403F000000090E610E4F00000FE
:2006FC000090E61174A0F000000090E618E4F000000090E6047402F000000090E61274A273
:20071C00F000000090E6137402F000000090E6147402F000000090E6157402F0000000906D
:20073C00E6047404F000000090E6047406F000000090E6047408F000000090E604E4F00033
:20075C00000090E619E4F000000090E61AE4F000000090E61BE4F000000090E60BE4F000FC
:18077C00000000000090E6917480F000000090E6917480F0000000226D
:2007940090E6A0E0FF74014FF022AF8274805FC423541FFE740F5F90E6834EF0E0FF742012
:2007B4004FF02290E680E0FF740A4FF09000FA120E0C90E65D74FFF090E65FF0AF9174EFDE
:0D07D4005FF59190E680E0FF74F75FF02282
:060E3D00E478FFF6D8FD89
:060E2400751200751300B9
:2007E10090E680E0FF30E7197514007515E17516127517E175181C7519E1751A58751BE185
:200801002275143C7515E175164E7517E17518587519E1751A1C751BE122C0E0C007C0D0B6
:2008210075D000AF9174EF5FF59175A100D204D0D0D007D0E032C021C0E0C0F0C082C083EF
:20084100C007C006C005C004C003C002C001C000C0D075D000AF9174EF5FF59175A10012F6
:2008610007E1D0D0D000D001D002D003D004D005D006D007D083D082D0F0D0E0D02132C05B
:2008810021C0E0C0F0C082C083C007C006C005C004C003C002C001C000C0D075D000AF9130
:2008A10074EF5FF59175A1001207E1D0D0D000D001D002D003D004D005D006D007D083D080
:2008C10082D0F0D0E0D021321207E1751C1B751D08758200120C8B751C37751D08758210B9
:2008E100120C8B751C80751D08758214120C8B90E65C7431F022AF828F06747F5EFF24F735
:20090100500475820022BF010475820122530701E4BF000104F58222AF82BF010C90E6A1DB
:20092100E0FE7D008E828D8322BF810C90E6A2E0FE7D008E828D83228F06747F5EFF700CB7
:2009410090E6A0E0FE7D008E828D832290E6A3E0FE7D00EFC3137C002EFEEC3D8E82F58351
:2009610022C20490E6B8E0FF5307608F06BE00028028BF2002800DBF4002800EBF6002802C
:2009810003020C1F120794020C1F120375E5826003020C1F120794020C1F90E6B8E0FF5391
:2009A1000780BF80028003020B2390E6B9E0FFBF0003020A9ABF06028033BF08028008BFBB
:2009C1000A028016020B1D90E740E512F090E68AE4F090E68B04F0020C1F90E740E513F017
:2009E10090E68AE4F090E68B04F0020C1F90E6BBE0FFBF01028017BF02028038BF030280D8
:200A010059BF0602801BBF0702803C020A94AE14AF1590E6B3EFF07F0090E6B4EEF0020CD3
:200A21001FAE16AF1790E6B3EFF07F0090E6B4EEF0020C1FAE18AF1990E6B3EFF07F0090AB
:200A4100E6B4EEF0020C1FAE1AAF1B90E6B3EFF07F0090E6B4EEF0020C1F90E6BAE0FF9003
:200A6100E178E0FEC3EF9E4006120794020C1F90E6BAE075F002A42479F58274E135F0F530
:200A810083E0FEA3E090E6B3F07F0090E6B4EEF0020C1F120794020C1F90E6B8E0FF530763
:200AA1001F8F06BE0002800ABE0102801BBF0266802C90E740E4F090E741F090E68AF09055
:200AC100E68B7402F0020C1F90E740E4F090E741F090E68AF090E68B7402F0020C1F90E6E4
:200AE100BCE0F5821208F7E582602590E6BCE0F582120919E0FF53070190E740EFF090E7E1
:200B010041E4F090E68AF090E68B7402F0020C1F120794020C1F120794020C1F12079402D8
:200B21000C1F90E6B9E0FF24F45003020C1CEF240A83F582EF241083F583E4731C67E4C52E
:200B41001C1C1C1C1C551C5E0C0B0B0B0C0C0C0C0C0B0C0B90E6BAE0F512020C1F90E6BA3A
:200B6100E0F513020C1F90E6B8E0FF53071F8F06BE00028005BF0247800A90E6BAE0120744
:200B810094020C1F90E6BAE0703090E6BCE0F5821208F7E582602390E6BCE0F582120919A2
:200BA100AE82AF83E0FD5305FE8E828F83EDF090E6BCE0F58212079E8064120794805F12DE
:200BC1000794805A90E6B8E0FF53071FBF004F90E6BAE0FFBF01028005BF02028040120719
:200BE10094803B90E6BAE0FF702C90E6BCE0F5821208F7E582601A90E6BCE0F582120919C2
:200C0100AE82AF83E0FD4305018E828F83EDF0800D1207948008120794800312079490E637
:080C2100A0E0FF74804FF022F7
:200C2900AF82BF03004005EF249C500122740F5FFEBE03028007740F5FFEBE0B44A2AF9257
:200C490005C2AFEF2400F582E43400F5837402F07E00142FFCE43EFDEC2400F582ED340011
:200C6900F583E51DFDF074022FFFE43EFEEF2400F582EE3400F583AE1C7F00EEF0A20592BC
:200C8900AF22E582FF2483500122EF5403600122A2AF9206C2AFEF2400F582E43401F583BC
:200CA9007402F07E00142FFCE43EFDEC2400F582ED3401F583E51DF074022FFFE43EFEEF23
:200CC9002400F582EE3401F583AE1CEEF0A20692AF22AF82BF80004005EF244B500122EFAD
:200CE9005403600122A2AF9207C2AFEF2480F582E43400F5837402F07E00142FFCE43EFDDA
:200D0900EC2480F582ED3400F583E51DF074022FFFE43EFEEF2480F582EE3400F583AE1C06
:200D2900EEF0A20792AF22C2E8C2EA751C00751D01758243120C29751C80751D00758253D8
:200D4900120C2900000090E650E4F000000090E652E4F000000090E654E4F000000090E6F9
:200D690056E4F000000090E65174FFF000000090E65374FFF000000090E65574FFF00000BC
:200D89000090E65774FFF000000090E658E4F090E65914F090E65AE4F090E65B14F090E6B6
:200DA9005CE4F090E65D14F090E65EE4F090E65F14F000000090E660E4F000000090E66121
:200DC90074FFF090E662E4F090E66314F090E665E4F090E668740BF0AF9174EF5FF591AFEB
:0B0DE9009174BF5FF591D2E8D2EA22BE
:200DF40022AF82120DF4EF14FEFF70F72290FB50A3E582458370F922AE82AF83120E01EE47
:100E140024FFFCEF34FFFD8C068D07EC4D70ED22B2
:0D0E30007581211205D6E5826003020E2DAA
:00000001FF
