:06000000020DB102006BCD
:03000B0002006B85
:0300130002006B7D
:03001B0002006B75
:0300230002006B6D
:03002B0002006B65
:0300330002006B5D
:03003B0002006B55
:0300430002006B4D
:03004B0002006B45
:0300530002006B3D
:03005B0002006B35
:0300630002006B2D
:01006B003262
:0900800002006B0002006B00029B
:08008900006B0002006B000295
:08009100006B0002006B00028D
:08009900006B0002006B000285
:0800A100006B0002006B00027D
:0800A900006B0002006B000275
:0700B100006B0002006B0070
:0901000002006B0002006B00021A
:08010900006B0002006B000214
:08011100006B0002006B00020C
:08011900006B0002006B000204
:08012100006B0002006B0002FC
:08012900006B0002006B0002F4
:08013100006B0002006B0002EC
:08013900006B0002006B0002E4
:08014100006B0002006B0002DC
:08014900006B0002006B0002D4
:08015100006B0002006B0002CC
:08015900006B0002006B0002C4
:08016100006B0002006B0002BC
:08016900006B0002006B0002B4
:08017100006B0002006B0002AC
:07017900006B0002006B00A7
:030DB700020DBF6B
:030DD200020DBA55
:050DBA001203F180FEB0
:06018000C200E4F508F5E1
:0401860009F50AD29B
:05018A0001750B00757A
:06018F000C001206001234
:0E01950005FD75CB6375CAC0758E0075C80474
:0701A300D2AFD2B0D2B122AD
:0B01AA00AA82850C827583E0EAF00554
:0501B5000C0509E4B592
:0401BA000902050A27
:0101BE00221E
:0401BF0020000122F9
:0E01C3001205FC90E6A2E0FA30E103020257BA
:0A01D100E509450A60687AC07BE783
:0E01DB008B9D7AC07BE77B008A9E90E67C7449
:0C01E90031F07460F0C3743E9509E49599
:0A01F5000A50107A3EE50924C2F515
:0601FF0009E50A34FFF5DA
:030205000A800765
:06020800AA09E4F509F566
:01020E000AE5
:0B020F008A037C007DE08D9A850B9B2C
:0E021A008A041AEC601090E67BE090E67CF01F
:080228007C007DE08D9A80EA64
:0C023000859B0B0090E68F74022BF0D22F
:03023C00CF801858
:0E023F0030CF1590E7C07431F090E7C17460C5
:0A024D00F00090E68F7402F0C2CFBB
:06025700E5AA30E00122DF
:0A025D00C3E50994C1E50A940040CE
:02026700012272
:0E02690090E690E0FB7A0090E691E0FC7D00CC
:0A027700EA4CF50DEB4DF50E7C008E
:0E0281007DF08D9A7C007DF08C9B7C007D00D2
:0A028F00C3EC950DED950E4003023F
:02029900036AF6
:07029B00E5087003020326D1
:0A02A200E50DC39CFEE50E9DFFA8CC
:0C02AC00087900C3E89EE99F5004880612
:0202B8008907B4
:0A02BA008E00E508C398F508EE2C4D
:0B02C400FCEF3DFD30012C8E008F018F
:0902CF008802890318B8FF011927
:0E02D800EA4B60B390E67BE0F582C004C005FF
:0E02E600C000C001120637D001D000D005D0F4
:0302F4000480D8AB
:0402F7008E028F03E1
:0902FB008A068B071ABAFF011BE9
:0E030400EE4F608790E67BE0F582C002C003FA
:0E031200C004C0051206741201AAD005D00462
:06032000D003D00280D5DD
:0D03260090E67BE0FA23235401FBB40100B4
:0A0333009201EA30E707743F5AF523
:03033D0008802213
:0C03400030010F8A82C004C00512060BB9
:06034C00D005D004801072
:0E0352008A82C004C0051206291201AAD00535
:02036000D004C7
:050362000CBC00010DC0
:0303670002028F00
:08036A000090E6917480F0227E
:0E03720090E6B8E0FA20E70C90E6B9E07002E1
:02038000D200A9
:04038200758201225D
:0E03860090E6B9E0FABA902B90E6BCE025E0D4
:0A039400547FFA2400F582E43418C7
:0C039E00F583E0FB90E740F0EA04240047
:0C03AA00F582E43418F583E0FA90E74196
:0303B600F0800CC8
:0C03B90090E7407436F090E7417483F048
:0D03C50090E68AE4F090E6BEE0FABA02008D
:0903D200500790E6BEE0FA80023B
:0203DB007A02A4
:0903DD0090E68BEAF07582012222
:0603E600300203120914AD
:0503EC001201BF80F5C5
:0E03F100C2AF90E609E4F01201801206C312BA
:0603FF000455120CE4128B
:08040500087ED2AF12078D0240
:02040D0003E604
:0A040F00AA82E50F54FEFBB50F02B0
:02041900802938
:0A041B008A048C05E46210ED621102
:0A042500EB2400F582E43418F5839F
:0A042F00E0FB7C006210EC6211E5B6
:060439001033C51133C5AC
:05043F001192E0F51030
:06044400AB0F050FEB24D5
:0A044A0000F582E43418F583EAF0AF
:010454002285
:07045500750F007510AA7578
:0C045C0011AA75820012040F75820012B4
:04046800040F7A0003
:0C046C00C3EA648094865017EA2408F567
:0C04780082E434E1F583E0F582C002125A
:07048400040FD0020A80E121
:02048B007A00F5
:0C048D00C3EA648094825017EA2423F52F
:0C04990082E434E1F583E0F582C0021239
:0704A500040FD0020A80E100
:0E04AC0075821C12040F75820012040F7A0074
:0C04BA00C3EA648094825017EA2402F523
:0C04C60082E434E1F583E0F582C002120C
:0704D200040FD0020A80E1D3
:0C04D9007486250FFAF582C00212040F91
:0C04E50090E188E0F58212040FD0029034
:0D04F100E188E02AFAF582C00212040F90A3
:0B04FE00E1A6E0F58212040FD002908E
:0A050900E1A6E02AF58212040F902B
:0A051300E1BEE0F58212040F7A0049
:0E051D0090E188E0FBC3EA64808BF063F0801D
:0B052B0095F05017EA2488F582E434B4
:0C053600E1F583E0F582C00212040FD052
:04054200020A80D752
:020546007A0039
:0E05480090E1A6E0FBC3EA64808BF063F080D4
:0B05560095F05017EA24A6F582E4346B
:0C056100E1F583E0F582C00212040FD027
:04056D00020A80D727
:020571007A000E
:0E05730090E1BEE0FBC3EA64808BF063F08091
:0B05810095F05017EA24BEF582E43428
:0C058C00E1F583E0F582C00212040FD0FC
:04059800020A80D7FC
:02059C007A00E3
:0C059E00C3EA648094845017EA240EF530
:0C05AA0082E434E1F583E0F582C0021227
:0705B600040FD0020A80E1EE
:0C05BD007482250F400875820012040FA4
:0205C90080F2BE
:0805CB00AA1090187EEAF0AAC4
:0705D3001190187FEAF022ED
:0805DA007880E84400600C7910
:0C05E20001901800E4F0A3D8FCD9FAD076
:0E05EE0083D082F6D8FDC082C08375820022C1
:02E1000012010A
:06E10200000200000040D5
:06E10800C016EF03040045
:04E10E000102030106
:0AE112000A060002FFFFFF400100B3
:07E11C0009022000010100CF
:0EE1230080FA0904000002FFFFFF02070581D9
:0BE131000200020007050202000200CD
:0EE13C001201000200000040C016EF030400B4
:04E14A0001020301CA
:0AE14E000A060002FFFFFF40010077
:0EE158000902200001010080FA090400000203
:0EE16600FFFFFF0207058102400000070502CF
:04E174000240000065
:01E1780004A2
:02E1790082E141
:02E17B0088E139
:02E17D00A6E119
:02E17F00BEE1FF
:06E1820006030000090481
:0EE188001E037700770077002E0072006500FE
:0EE19600740072006F00310031002E00640032
:02E1A400650014
:0EE1A60018036E0065007800790073003200E7
:0AE1B4005F006A007400610067005C
:0EE1BE0012033000300030003000300030001E
:04E1CC0030003000EF
:0105FC0022DC
:0105FD0022DB
:0105FE0022DA
:0105FF0022D9
:0B060000D2B775B5809001F4020DA088
:0E060B00AA82ABB574FE5BF5F0741C45F0F5E9
:0E061900B5EA1392B4EAA2E192B3EAA2E49227
:02062700B222FD
:0E06290012060BA2B0E433FA74024AF58222E4
:0E063700E5821392B2D2B413C2B492B2D2B41E
:0E06450013C2B492B2D2B413C2B492B2D2B401
:0E06530013C2B492B2D2B413C2B492B2D2B4F3
:0E06610013C2B492B2D2B413C2B492B2D2B4E5
:05066F0000C2B42222CC
:0E067400E582A2B01392B2D2B4C2B4A2B01307
:0E06820092B2D2B4C2B4A2B01392B2D2B4C239
:0E069000B4A2B01392B2D2B4C2B4A2B013920C
:0E069E00B2D2B4C2B4A2B01392B2D2B4C2B4FB
:0E06AC00A2B01392B2D2B4C2B4A2B01392B2F2
:0906BA00D2B400C2B4F582222280
:0D06C30090E6007412F090E60174ABF09028
:0E06D000E6707480F00090E60274E0F0009096
:0E06DE00E60374F9F00090E6047480F00090DA
:0D06EC00E60B7403F00090E610E4F00090BF
:0D06F900E61174A0F00090E618E4F0009007
:0E070600E6047402F00090E61274A2F0009077
:0E071400E6137402F00090E6147402F00090F8
:0E072200E6157402F00090E6047404F00090F6
:0E073000E6047406F00090E6047408F00090F1
:0E073E00E604E4F00090E619E4F00090E61AFC
:0E074C00E4F00090E61BE4F00090E60BE4F011
:0E075A00000090E6917480F00090E6917480AB
:03076800F000227C
:08076B0090E6A0E04401F02239
:0E077300AA8274805AC423541FFB740F5A903C
:0C078100E6834BF090E683E04420F02279
:0E078D0090E680E0440AF09000FA120DA09071
:0E079B00E65D74FFF090E65F74FFF05391EF9F
:0807A90090E680E054F7F02215
:060DCC00E478FFF6D8FDFB
:060DB1007512007513002D
:0A07B10090E680E0FA30E7197514B5
:0307BB00007515B1
:0307BE00E17516CC
:0307C10012751797
:0307C400E17518C4
:0307C7001C751985
:0307CA00E1751ABC
:0307CD0058751B41
:0207D000E12224
:0407D20075143C75E9
:0307D60015E175B5
:0307D900164E7544
:0307DC0017E175AD
:0307DF0018587532
:0307E20019E175A5
:0307E5001A1C7566
:0307E8001BE122F0
:0907EB005391EF75A100D2023216
:0C07F400C021C0E0C0F0C082C083C00281
:0E080000C003C004C005C006C007C000C00190
:0E080E00C0D075D0005391EF75A1001207B154
:0E081C00D0D0D001D000D007D006D005D00437
:0D082A00D003D002D083D082D0F0D0E0D037
:0208370021326C
:0C083900C021C0E0C0F0C082C083C0023B
:0E084500C003C004C005C006C007C000C0014B
:0E085300C0D075D0005391EF75A1001207B10F
:0E086100D0D0D001D000D007D006D005D004F2
:0D086F00D003D002D083D082D0F0D0E0D0F2
:02087C00213227
:05087E001207B1751C1A
:03088300EB751DF5
:0808860007758200120C3D759C
:03088E001CF475E2
:060891001D077582101224
:040897000C3D751C83
:03089B0039751D8F
:0C089E0008758214120C3D90E65C743169
:0208AA00F0223A
:0D08AC00E582547FFA24F750047582002283
:0708B900BA0104758201225F
:0808C000530201E4BA00010437
:0308C800F5822294
:0E08CB00AA82BA010C90E6A1E0FB7C008B82B1
:0308D9008C8322EB
:0E08DC00BA810C90E6A2E0FB7C008B828C833C
:0108EA0022EB
:0E08EB0053027FEA700C90E6A0E0FB7C008BCD
:0408F900828C832248
:0E08FD0090E6A3E0FB7C00EAC313FA7D00EA5C
:09090B002BFBED3C8B82F58322ED
:0C091400C20290E6B8E0FA530260BA009C
:030920000280282A
:05092300BA2002800D66
:05092800BA4002800E40
:05092D00BA6002800326
:03093200020BD2E3
:0609350012076B020BD259
:0A093B00120372E5826003020BD282
:0609450012076B020BD249
:0D094B0090E6B8E0FA530280BA8002800303
:03095800020AD3BD
:0B095B0090E6B9E0FABA0003020A4C73
:05096600BA0602803515
:05096B00BA080280083B
:05097000BA0A02801725
:03097500020ACDA6
:0C09780090E740E512F090E68AE4F09071
:08098400E68B7401F0020BD2B6
:0C098C0090E740E513F090E68AE4F0905C
:08099800E68B7401F0020BD2A2
:0A09A00090E6BBE0FABA01028017EE
:0509AA00BA02028038D2
:0509AF00BA03028059AB
:0509B400BA0602801BE1
:0509B900BA0702803CBA
:0309BE00020A46E4
:0A09C100AA14AB1590E6B3EBF07B2F
:0909CB000090E6B4EAF0020BD240
:0A09D400AA16AB1790E6B3EBF07B18
:0909DE000090E6B4EAF0020BD22D
:0A09E700AA18AB1990E6B3EBF07B01
:0909F1000090E6B4EAF0020BD21A
:0A09FA00AA1AAB1B90E6B3EBF07BEA
:090A04000090E6B4EAF0020BD206
:0E0A0D0090E6BAE0FA90E178E0FBC3EA9B4085
:070A1B000612076B020BD26B
:0C0A220090E6BAE075F002A42479F58299
:0B0A2E0074E135F0F583E0FAA3E090DE
:0D0A3900E6B3F07B0090E6B4EAF0020BD2C9
:060A460012076B020BD247
:0D0A4C0090E6B8E0FA53021FBA0002800ADB
:050A5900BA0102801B40
:050A5E00BA0266802CC5
:0E0A630090E740E4F090E741F090E68AF090D2
:080A7100E68B7402F0020BD2C7
:0E0A790090E740E4F090E741F090E68AF090BC
:080A8700E68B7402F0020BD2B1
:0E0A8F0090E6BCE0F5821208ACE5826025908E
:0E0A9D00E6BCE0F5821208CBE0FA53020190AD
:0E0AAB00E740EAF090E741E4F090E68AF09030
:080AB900E68B7402F0020BD27F
:060AC10012076B020BD2CC
:060AC70012076B020BD2C6
:060ACD0012076B020BD2C0
:0C0AD30090E6B9E0FA24F45003020BCFC7
:070ADF00EA2A2A900AE673DF
:070AE600020BCF020B1C0202
:060AED000B97020B7802DA
:060AF3000BCF020BCF0245
:060AF9000BCF020BCF023F
:060AFF000BCF020B0A02FE
:050B05000BCF020B13F1
:090B0A0090E6BAE0F512020BD2EC
:090B130090E6BAE0F513020BD2E2
:0D0B1C0090E6B8E0FA53021FBA000280050F
:050B2900BA0247800A3A
:0A0B2E0090E6BAE012076B020BD24A
:0D0B380090E6BAE0703090E6BCE0F5821265
:0D0B450008ACE582602390E6BCE0F582126A
:0E0B520008CBAA82AB83E0FC5304FE8A828BA0
:0E0B600083ECF090E6BCE0F58212077380642F
:050B6E0012076B805F1F
:050B730012076B805A1F
:0E0B780090E6B8E0FA53021FBA004F90E6BABA
:070B8600E0FABA010280054C
:050B8D00BA02028040E5
:050B920012076B803B1F
:0E0B970090E6BAE0FA702C90E6BCE0F582120F
:0D0BA50008ACE582601A90E6BCE0F5821213
:0E0BB20008CBAA82AB83E0FC4304018A828B4D
:050BC00083ECF0800D44
:050BC50012076B80081F
:050BCA0012076B80031F
:030BCF0012076B9F
:080BD20090E6A0E04480F0224F
:050BDA00AA82BA03002D
:070BDF004005EA249C5001CF
:010BE60022EC
:090BE700740F5AFBBB03028007E6
:070BF000740F5AFBBB0B451B
:0A0BF700A2AF9203C2AFEA2400F59A
:0C0C010082E43400F5837402F07B007480
:0C0C0D00012AFCE43BFDEC2400F582ED24
:0A0C19003400F583E51DFCF07402C1
:0C0C23002AFAE43BFBEA2400F582EB34E3
:0A0C2F0000F583AA1C7B00EAF0A286
:030C39000392AF74
:010C3C002295
:080C3D00E582FA248350012234
:060C4500EA5403600122E5
:0A0C4B00A2AF9204C2AFEA2400F544
:0C0C550082E43401F5837402F07B00742B
:0C0C6100012AFCE43BFDEC2400F582EDD0
:0A0C6D003401F583E51DF074022A3E
:0B0C7700FAE43BFBEA2400F582EB34BA
:080C820001F583AA1CEAF0A2AF
:040C8A000492AF22FF
:050C8E00AA82BA8000FB
:070C93004005EA244B50016B
:010C9A002237
:060C9B00EA54036001228F
:0A0CA100A2AF9205C2AFEA2480F56D
:0C0CAB0082E43400F5837402F07B0074D6
:0C0CB700012AFCE43BFDEC2480F582EDFA
:0A0CC3003400F583E51DF074022AE9
:0B0CCD00FAE43BFBEA2480F582EB34E4
:080CD80000F583AA1CEAF0A25A
:040CE0000592AF22A8
:080CE400C2E8C2EA751C0075AC
:060CEC001D017582431298
:040CF2000BDA751C88
:030CF60080751DE9
:0C0CF90000758253120BDA0090E650E404
:0E0D0500F00090E652E4F00090E654E4F000B6
:0E0D130090E656E4F00090E65174FFF0009078
:0E0D2100E65374FFF00090E65574FFF000906A
:0E0D2F00E65774FFF00090E658E4F090E659A5
:0E0D3D0074FFF090E65AE4F090E65B74FFF06D
:0E0D4B0090E65CE4F090E65D74FFF090E65EEA
:0E0D5900E4F090E65F74FFF00090E660E4F0D6
:0D0D67000090E66174FFF090E662E4F09009
:0E0D7400E66374FFF090E665E4F090E66874C4
:0A0D82000BF05391AFD2E8D2EA2241
:010D8C002244
:020D8D00AA8238
:060D8F00120D8CDAFB22BC
:030D950090FB5080
:080D9800A3E582458370F922F6
:040DA000AA82AB83F5
:080DA400120D951ABAFF011BA4
:050DAC00EA4B70F42287
:030DBF007581211A
:0A0DC2001205DAE5826003020DBAA3
:00000001FF
